:020000040800F2
:1000000000800120D90B0008190A00081F0A000807
:10001000250A00082B0A0008310A00080000000029
:10002000000000000000000000000000370A000887
:10003000450A000800000000530A0008610A000891
:10004000290C0008290C0008290C0008290C0008BC
:10005000290C0008290C0008290C0008290C0008AC
:10006000290C0008290C0008290C0008290C00089C
:10007000290C0008290C0008290C0008290C00088C
:10008000290C0008290C0008290C0008290C00087C
:10009000290C0008290C0008290C0008290C00086C
:1000A000290C0008290C0008290C0008290C00085C
:1000B000290C0008290C0008290C0008290C00084C
:1000C000290C0008290C0008290C0008290C00083C
:1000D000290C0008290C0008290C0008290C00082C
:1000E000290C0008290C0008290C0008290C00081C
:1000F000290C0008290C0008290C0008290C00080C
:10010000290C0008290C0008290C0008290C0008FB
:10011000290C0008290C0008290C0008290C0008EB
:10012000290C0008290C0008290C0008290C0008DB
:10013000290C0008290C0008290C0008290C0008CB
:10014000290C0008290C0008290C0008290C0008BB
:10015000290C0008290C0008290C0008290C0008AB
:10016000290C0008290C0008290C0008290C00089B
:10017000290C0008290C0008290C000800000000C8
:08018000290C0008290C0008FD
:1001900010B5054C237833B9044B13B10448AFF3C1
:1001A00000800123237010BD7000002000000000BB
:1001B000A449000808B5034B1BB103490348AFF33A
:1001C000008008BD0000000074000020A449000861
:1001D00053B94AB9002908BF00281CBF4FF0FF31AE
:1001E0004FF0FF3000F074B9ADF1080C6DE904CEAA
:1001F00000F006F8DDF804E0DDE9022304B0704702
:100200002DE9F047089D04468E46002B4DD18A42C9
:10021000944669D9B2FA82F252B101FA02F3C2F1FC
:10022000200120FA01F10CFA02FC41EA030E94408D
:100230004FEA1C48210CBEFBF8F61FFA8CF708FBAE
:1002400016E341EA034306FB07F199420AD91CEB86
:10025000030306F1FF3080F01F81994240F21C81B8
:10026000023E63445B1AA4B2B3FBF8F008FB103300
:1002700044EA034400FB07F7A7420AD91CEB040435
:1002800000F1FF3380F00A81A74240F20781644405
:10029000023840EA0640E41B00261DB1D44000238A
:1002A000C5E900433146BDE8F0878B4209D9002DEE
:1002B00000F0EF800026C5E9000130463146BDE878
:1002C000F087B3FA83F6002E4AD18B4202D38242E2
:1002D00000F2F980841A61EB030301209E46002D91
:1002E000E0D0C5E9004EDDE702B9FFDEB2FA82F2E6
:1002F000002A40F09280A1EB0C014FEA1C471FFA44
:100300008CFE0126200CB1FBF7F307FB131140EA2A
:1003100001410EFB03F0884208D91CEB010103F1F7
:10032000FF3802D2884200F2CB804346091AA4B2B9
:10033000B1FBF7F007FB101144EA01440EFB00FE8D
:10034000A64508D91CEB040400F1FF3102D2A645F2
:1003500000F2BB800846A4EB0E0440EA03409CE791
:10036000C6F12007B34022FA07FC4CEA030C20FA3E
:1003700007F401FA06F31C43F9404FEA1C4900FA5E
:1003800006F3B1FBF9F8200C1FFA8CFE09FB1811DB
:1003900040EA014108FB0EF0884202FA06F20BD94E
:1003A0001CEB010108F1FF3A80F08880884240F29E
:1003B0008580A8F102086144091AA4B2B1FBF9F0E2
:1003C00009FB101144EA014100FB0EFE8E4508D9DD
:1003D0001CEB010100F1FF346CD28E456AD9023862
:1003E000614440EA0840A0FB0294A1EB0E01A14247
:1003F000C846A64656D353D05DB1B3EB080261EBB5
:100400000E0101FA07F722FA06F3F1401F43C5E98E
:10041000007100263146BDE8F087C2F12003D840C4
:100420000CFA02FC21FA03F3914001434FEA1C4706
:100430001FFA8CFEB3FBF7F007FB10360B0C43EAF8
:10044000064300FB0EF69E4204FA02F408D91CEBA8
:10045000030300F1FF382FD29E422DD902386344A6
:100460009B1B89B2B3FBF7F607FB163341EA034146
:1004700006FB0EF38B4208D91CEB010106F1FF3895
:1004800016D28B4214D9023E6144C91A46EA00468C
:1004900038E72E46284605E70646E3E61846F8E61E
:1004A0004B45A9D2B9EB020864EB0C0E0138A3E767
:1004B0004646EAE7204694E74046D1E7D0467BE748
:1004C000023B614432E7304609E76444023842E7C0
:1004D000704700BF000000000000000000000000A6
:1004E00001F0FF01102A2BDB10F0070F08D010F8E5
:1004F000013B013A8B422DD010F0070F42B3F6D1E9
:10050000F0B441EA012141EA014122F007047FF001
:1005100000070023F0E80256083C85EA010586EA58
:10052000010685FA47F5A3FA87F586FA47F6A5FA94
:1005300087F68EB9EED1F0BC01F0FF0102F00702A0
:1005400032B110F8013B013A83EA010313B1F8D14B
:100550000020704701387047002D06BF354603382C
:10056000073815F0010F07D1013015F4807F02BF65
:10057000013015F4C03F0130F0BC0138704700BFB6
:1005800080B584B000AF78607B680A2B09D10D2359
:10059000FB7307F10F014FF0FF330122074802F010
:1005A000ADFC391D4FF0FF330122044802F0A6FCD8
:1005B000012318461037BD4680BD00BFB0000020A3
:1005C00080B500AF4FF40051054800F0BFFD034671
:1005D000002B01D1012300E00023184680BD00BF9D
:1005E00000080048B0B590B004AF03F082F900F005
:1005F0005FF800F00BF900F0D9F800F0AFF817231E
:1006000087F82F300B2387F82D30132387F82E30EF
:10061000022387F82C3007F12C03002219462248C8
:1006200002F078FAFFF7CCFF0346002B18D03B46C8
:1006300000221A605A609A60DA601A6100BFFFF700
:10064000BFFF0346002BFAD107233B702D237B709D
:100650000023BB703B4600221946134802F061F9A3
:1006600007F11803002219460F4802F0F7F907F1C5
:100670001403002219460C4802F0D3FAFB7D03F55F
:10068000FA617B7D1C46BB7D1D463B7E7A7EB87E33
:100690000290019200932B462246044803F0F4F99D
:1006A000C82003F09BF9BDE78C000020BC4900087E
:1006B00080B596B000AF07F114034422002118461C
:1006C00003F0DAF93B4600221A605A609A60DA6059
:1006D0001A614FF4007000F077FD0346002B01D043
:1006E00000F0E2F800F0C6FD1B4BD3F890301A4A38
:1006F00023F01803C2F8903014237B610123FB61BF
:100700000123FB6200233B6360237B630023FB63C5
:1007100007F11403184601F089FA0346002B01D0B3
:1007200000F0C2F80F233B6000237B600023BB6016
:100730000023FB6000233B613B460021184601F08B
:1007400051FE0346002B01D000F0AEF801F08CF80A
:1007500000BF5837BD4680BD0010024080B500AFD5
:10076000104B114A1A600F4B00225A600D4B7F222A
:100770009A600C4BFF22DA600A4B00221A61094B87
:1007800000225A61074B00229A61064B0022DA616F
:10079000044802F04BF80346002B01D000F084F827
:1007A00000BF80BD8C0000200028004080B500AF55
:1007B000144B154A1A60134B4FF4E1325A60114B37
:1007C00000229A600F4B0022DA600E4B00221A6161
:1007D0000C4B0C225A610B4B00229A61094B0022F0
:1007E000DA61084B00221A62064B00225A62054861
:1007F00002F036FB0346002B01D000F055F800BF95
:1008000080BD00BFB00000200044004080B588B02B
:1008100000AF07F10C0300221A605A609A60DA6098
:100820001A611F4BDB6C1E4A43F00403D3641C4B5C
:10083000DB6C03F00403BB60BB68194BDB6C184A2C
:1008400043F00103D364164BDB6C03F001037B60C0
:100850007B68002220214FF0904000F08FFC4FF485
:100860000053FB6000233B6100237B6107F10C0315
:1008700019460C4800F0C0FA2023FB6001233B61BD
:1008800000237B610023BB6107F10C0319464FF085
:10089000904000F0B1FA00BF2037BD4680BD00BFD8
:1008A000001002400008004880B400AF72B600BFDC
:1008B000FEE7000080B483B000AF0F4B1B6E0E4A02
:1008C00043F0010313660C4B1B6E03F001037B60C6
:1008D0007B68094B9B6D084A43F080539365064B38
:1008E0009B6D03F080533B603B6800BF0C37BD46F7
:1008F0005DF8047B704700BF0010024080B5A4B0D3
:1009000000AF786007F1080388220021184603F041
:10091000B3F87B681B68104A934218D14FF4003338
:10092000BB604FF48073C7F88C3007F1080318469A
:1009300000F0B0FC0346002B01D0FFF7B5FF074BDA
:10094000D3F89030054A43F40043C2F8903000BF1A
:100950009037BD4680BD00BF002800400010024017
:1009600080B5ACB000AF786007F19C0300221A603C
:100970005A609A60DA601A6107F114038822002134
:10098000184603F079F87B681B68214A93423BD1F3
:1009900002237B6100233B6507F11403184600F036
:1009A00079FC0346002B01D0FFF77EFF194B9B6DAE
:1009B000184A43F400339365164B9B6D03F40033E0
:1009C0003B613B69134BDB6C124A43F00103D36478
:1009D000104BDB6C03F00103FB60FB680C23C7F8D2
:1009E0009C300223C7F8A0300023C7F8A4300323AB
:1009F000C7F8A8300723C7F8AC3007F19C031946A5
:100A00004FF0904000F0F8F900BFB037BD4680BD10
:100A1000004400400010024080B400AFFEE780B404
:100A200000AFFEE780B400AFFEE780B400AFFEE7A2
:100A300080B400AFFEE780B400AF00BFBD465DF8F4
:100A4000047B704780B400AF00BFBD465DF8047BF7
:100A5000704780B400AF00BFBD465DF8047B7047AF
:100A600080B500AF02F09AFF00BF80BD80B586B0B0
:100A700000AFF860B9607A6000237B610AE0AFF3F1
:100A800000800146BB685A1CBA60CAB21A707B6902
:100A900001337B617A697B689A42F0DB7B68184698
:100AA0001837BD4680BD80B586B000AFF860B9602C
:100AB0007A6000237B6109E0BB685A1CBA601B782E
:100AC0001846FFF75DFD7B6901337B617A697B68BE
:100AD0009A42F1DB7B6818461837BD4680BD80B46A
:100AE00083B000AF78604FF0FF3318460C37BD4637
:100AF0005DF8047B704780B483B000AF78603960E4
:100B00003B684FF400525A60002318460C37BD462C
:100B10005DF8047B704780B483B000AF7860012338
:100B200018460C37BD465DF8047B704780B485B02D
:100B300000AFF860B9607A60002318461437BD46EC
:100B40005DF8047B7047000080B586B000AF786028
:100B5000144A154BD31A7B617B693B61134B1B68AD
:100B6000002B02D1114B124A1A60104B1A687B6895
:100B700013443A699A4207D202F054FF03460C220A
:100B80001A604FF0FF3309E0084B1B68FB60074B0E
:100B90001A687B681344054A1360FB6818461837C7
:100BA000BD4680BD0080012000040000340100200B
:100BB0005001002080B400AF064BD3F88830054ABE
:100BC00043F47003C2F8883000BFBD465DF8047B73
:100BD000704700BF00ED00E0DFF834D0FFF7EAFF18
:100BE0000C480D490D4A002302E0D458C450043388
:100BF000C4188C42F9D30A4A0A4C002301E013605E
:100C00000432A242FBD302F013FFFFF7EBFCFEE736
:100C1000008001200000002070000020D44A00085D
:100C2000700000204C010020FEE7000080B485B079
:100C300000AF78607B6803F00703FB600C4BDB6858
:100C4000BB60BA684FF6FF031340BB60FB681A0233
:100C5000BB68134343F0BF6343F40033BB60044AF3
:100C6000BB68D36000BF1437BD465DF8047B704796
:100C700000ED00E080B400AF044BDB681B0A03F01A
:100C800007031846BD465DF8047B704700ED00E0A1
:100C900080B483B000AF03463960FB7197F9073029
:100CA000002B0ADB3B68DAB20C4997F907301201D6
:100CB000D2B20B4483F800230AE03B68DAB2084959
:100CC000FB7903F00F03043B1201D2B20B441A76F6
:100CD00000BF0C37BD465DF8047B704700E100E0C3
:100CE00000ED00E080B489B000AFF860B9607A60D0
:100CF000FB6803F00703FB61FB69C3F10703042BE7
:100D000028BF0423BB61FB690433062B02D9FB69AE
:100D1000033B00E000237B614FF0FF32BB6902FA26
:100D200003F3DA43BB681A407B699A404FF0FF3106
:100D30007B6901FA03F3D9437B680B4013431846E0
:100D40002437BD465DF8047B7047000080B582B053
:100D500000AF78607B68013BB3F1807F01D3012352
:100D60000FE00A4A7B68013B53600F214FF0FF30D0
:100D7000FFF78EFF054B00229A60044B07221A6092
:100D8000002318460837BD4680BD00BF10E000E0D4
:100D900080B582B000AF78607868FFF747FF00BF8A
:100DA0000837BD4680BD80B586B000AF0346B96048
:100DB0007A60FB7300237B61FFF75CFF78617A68E0
:100DC000B9687869FFF78EFF024697F90F30114630
:100DD0001846FFF75DFF00BF1837BD4680BD80B5E0
:100DE00082B000AF78607868FFF7B0FF034618461E
:100DF0000837BD4680BD000080B487B000AF786082
:100E0000396000237B617FE13B681A6801217B69BF
:100E100001FA03F31340FB60FB68002B00F07181C3
:100E20003B685B6803F00303012B05D03B685B68FC
:100E300003F00303022B30D17B689B683B617B6925
:100E40005B00032202FA03F3DB433A6913403B6180
:100E50003B68DA687B695B0002FA03F33A69134383
:100E60003B617B683A699A607B685B683B61012201
:100E70007B6902FA03F3DB433A6913403B613B6849
:100E80005B681B0903F001027B6902FA03F33A690C
:100E900013433B617B683A695A603B685B6803F0C7
:100EA0000303032B18D17B68DB6A3B6101227B695A
:100EB00002FA03F3DB433A6913403B613B685B682A
:100EC000DB0803F001027B6902FA03F33A6913437A
:100ED0003B617B683A69DA623B685B6803F0030355
:100EE000032B17D07B68DB683B617B695B000322C7
:100EF00002FA03F3DB433A6913403B613B689A68AB
:100F00007B695B0002FA03F33A6913433B617B6838
:100F10003A69DA603B685B6803F00303022B23D174
:100F20007B69DA087B68083253F822303B617B69C1
:100F300003F007039B000F2202FA03F3DB433A6935
:100F400013403B613B681A697B6903F007039B0010
:100F500002FA03F33A6913433B617B69DA087B6861
:100F60000832396943F822107B681B683B617B6952
:100F70005B00032202FA03F3DB433A6913403B614F
:100F80003B685B6803F003027B695B0002FA03F3D2
:100F90003A6913433B617B683A691A603B685B6856
:100FA00003F44033002B00F0AC805F4B1B6E5E4AB5
:100FB00043F0010313665C4B1B6E03F00103BB603F
:100FC000BB685A4A7B699B08023352F823303B6165
:100FD0007B6903F003039B000F2202FA03F3DB4358
:100FE0003A6913403B617B68B3F1904F25D07B6831
:100FF0004F4A93421FD07B684E4A934219D07B6878
:101000004D4A934213D07B684C4A93420DD07B6883
:101010004B4A934207D07B684A4A934201D1062348
:101020000CE007230AE0052308E0042306E003237D
:1010300004E0022302E0012300E000237A6902F0C9
:101040000302920093403A6913433B6137497B693D
:101050009B0802333A6941F823203B4B9B683B6174
:10106000FB68DB433A6913403B613B685B6803F410
:101070008013002B03D03A69FB6813433B61324A6B
:101080003B699360304BDB683B61FB68DB433A694B
:1010900013403B613B685B6803F40013002B03D0F3
:1010A0003A69FB6813433B61274A3B69D360264B8F
:1010B0005B683B61FB68DB433A6913403B613B681B
:1010C0005B6803F40033002B03D03A69FB681343D9
:1010D0003B611D4A3B6953601B4B1B683B61FB68CE
:1010E000DB433A6913403B613B685B6803F4803340
:1010F000002B03D03A69FB6813433B61124A3B69FA
:1011000013607B6901337B613B681A687B6922FA53
:1011100003F3002B7FF478AE00BF00BF1C37BD4641
:101120005DF8047B704700BF0010024000000140E2
:101130000004004800080048000C00480010004867
:1011400000140048001800480004014080B485B035
:1011500000AF78600B467B807B681A697B88134000
:10116000002B02D00123FB7301E00023FB73FB7B08
:1011700018461437BD465DF8047B704780B483B0D1
:1011800000AF78600B467B8013467B707B78002B2A
:1011900003D07A887B689A6102E07A887B689A62D9
:1011A00000BF0C37BD465DF8047B704780B400AFCC
:1011B000044B1B6803F4C0631846BD465DF8047B0E
:1011C000704700BF0070004080B485B000AF786009
:1011D0007B68B3F5007F30D1234B1B6803F4C063F9
:1011E000B3F5007F38D0204B1B6823F4C0631E4A40
:1011F00043F4007313601D4B1B68322202FB03F3A0
:101200001B4AA2FB03239B0C0133FB6002E0FB683B
:10121000013BFB60144B5B6903F48063B3F5806FA3
:1012200002D1FB68002BF2D10F4B5B6903F48063A2
:10123000B3F5806F10D103230FE00B4B1B6803F451
:10124000C063B3F5806F07D0074B1B6823F4C063FE
:10125000054A43F480631360002318461437BD46E3
:101260005DF8047B704700BF007000400000002064
:1012700083DE1B4380B400AF054B1B68044A43F474
:101280008073136000BFBD465DF8047B704700BFEC
:101290000070004080B586B000AF78600023FB741A
:1012A0000023BB747B681B6803F40063002B41D0F0
:1012B0007B685B6EB3F5400F2AD0B3F5400F24D89E
:1012C000B3F5000F08D0B3F5000F1ED8002B0AD0DD
:1012D000B3F5800F10D018E0864BDB68854A43F4E5
:1012E0008033D36015E07B6804330021184600F09A
:1012F000CBFA0346FB740CE07B68203300211846D0
:1013000000F0B6FB0346FB7403E00123FB7400E02E
:1013100000BFFB7C002B0BD1764BD3F8883023F435
:1013200040027B685B6E73491343C1F8883001E06B
:10133000FB7CBB747B681B6803F48053002B41D09B
:101340007B689B6EB3F1407F2AD0B3F1407F24D8F5
:10135000B3F1007F08D0B3F1007F1ED8002B0AD074
:10136000B3F1807F10D018E0624BDB68614A43F430
:101370008033D36015E07B6804330021184600F009
:1013800083FA0346FB740CE07B6820330021184687
:1013900000F06EFB0346FB7403E00123FB7400E0E6
:1013A00000BFFB7C002B0BD1524BD3F8883023F0CD
:1013B00040727B689B6E4F491343C1F8883001E04F
:1013C000FB7CBB747B681B6803F40033002B00F0CC
:1013D000A08000237B74474B9B6D03F08053002B50
:1013E00001D1012300E00023002B0DD0414B9B6D68
:1013F000404A43F0805393653E4B9B6D03F080530E
:10140000BB60BB6801237B743B4B1B683A4A43F4C7
:101410008073136002F0D6FAF86009E002F0D2FAA5
:101420000246FB68D31A022B02D90323FB7405E0A2
:10143000314B1B6803F48073002BEFD0FB7C002B37
:101440005CD12C4BD3F8903003F440737B617B6903
:10145000002B1FD07B68D3F884307A699A4219D068
:10146000244BD3F8903023F440737B61214BD3F8A5
:101470009030204A43F48033C2F890301D4BD3F8AB
:1014800090301C4A23F48033C2F89030194A7B69AB
:10149000C2F890307B6903F00103002B16D002F0F4
:1014A00091FAF8600BE002F08DFA0246FB68D31A5D
:1014B00041F28832934202D90323FB7406E00D4BBC
:1014C000D3F8903003F00203002BECD0FB7C002B10
:1014D0000CD1084BD3F8903023F440727B68D3F8DA
:1014E000843004491343C1F8903009E0FB7CBB749D
:1014F00006E000BF0010024000700040FB7CBB749F
:101500007B7C012B05D19E4B9B6D9D4A23F0805324
:1015100093657B681B6803F00103002B0AD0984B8E
:10152000D3F8883023F003027B689B6B9449134304
:10153000C1F888307B681B6803F00203002B0AD0D7
:101540008F4BD3F8883023F00C027B68DB6B8C491F
:101550001343C1F888307B681B6803F00403002B39
:101560000AD0874BD3F8883023F030027B681B6C9D
:1015700083491343C1F888307B681B6803F0080374
:10158000002B0AD07E4BD3F8883023F0C0027B6852
:101590005B6C7B491343C1F888307B681B6803F0A0
:1015A0001003002B0AD0764BD3F8883023F4407216
:1015B0007B689B6C72491343C1F888307B681B6859
:1015C00003F02003002B0AD06D4BD3F8883023F4AE
:1015D00040627B68DB6C6A491343C1F888307B68E2
:1015E0001B6803F40073002B0AD0654BD3F88830D6
:1015F00023F440227B68DB6D61491343C1F88830D6
:101600007B681B6803F48063002B0AD05C4BD3F823
:10161000883023F440127B681B6E59491343C1F88C
:1016200088307B681B6803F04003002B0AD0544BC2
:10163000D3F8883023F440527B681B6D5049134324
:10164000C1F888307B681B6803F08003002B0AD048
:101650004B4BD3F8883023F440427B685B6D48499C
:101660001343C1F888307B681B6803F48073002B38
:101670000AD0434BD3F8883023F440327B689B6D0B
:101680003F491343C1F888307B681B6803F400535B
:10169000002B28D03A4BD3F8883023F040627B6887
:1016A000DB6E37491343C1F888307B68DB6EB3F1DA
:1016B000006F06D1324BDB68314A43F48013D360AC
:1016C00011E07B68DB6EB3F1806F0CD17B68043373
:1016D0000121184600F0D8F80346FB74FB7C002B70
:1016E00001D0FB7CBB747B681B6803F40023002BD8
:1016F00028D0234BD3F8883023F040627B681B6FDF
:101700001F491343C1F888307B681B6FB3F1006F2A
:1017100006D11B4BDB681A4A43F48013D36011E0F7
:101720007B681B6FB3F1806F0CD17B6804330121A0
:10173000184600F0A9F80346FB74FB7C002B01D08F
:10174000FB7CBB747B681B6803F48023002B2BD0CD
:101750000B4BD3F8883023F040627B685B6F0849FD
:101760001343C1F888307B685B6FB3F1006F09D118
:10177000034BDB68024A43F48013D36014E000BFDC
:10178000001002407B685B6FB3F1806F0CD17B6807
:1017900004330121184600F077F80346FB74FB7C04
:1017A000002B01D0FB7CBB747B681B6803F4804377
:1017B000002B2FD02B4BD3F8883023F040527B687E
:1017C0009B6F28491343C1F888307B689B6FB3F146
:1017D000805F0DD17B6804330221184600F054F875
:1017E0000346FB74FB7C002B14D0FB7CBB7411E024
:1017F0007B689B6FB3F1005F0CD17B6820330221C3
:10180000184600F035F90346FB74FB7C002B01D031
:10181000FB7CBB747B681B6803F40043002B0AD07D
:10182000104BD3F8883023F080427B68DB6F0D4982
:101830001343C1F888307B681B6803F48033002BA6
:101840000BD0084BD3F8883023F000427B68D3F8E4
:10185000803004491343C1F88830BB7C18461837E0
:10186000BD4680BD0010024080B400AF054B1B6830
:10187000044A43F00403136000BFBD465DF8047BD7
:10188000704700BF0010024080B584B000AF7860A0
:1018900039600023FB73754BDB6803F00303002BF7
:1018A00018D0724BDB6803F003027B681B689A4216
:1018B0000DD17B681B68002B09D06C4BDB681B09C2
:1018C00003F007035A1C7B685B689A4247D00123E8
:1018D000FB7344E07B681B68032B18D0032B25D8CF
:1018E000012B02D0022B09D020E0604B1B6803F0D3
:1018F0000203002B1DD10123FB731AE05B4B1B6815
:1019000003F48063002B16D10123FB7313E0574BC4
:101910001B6803F40033002B0FD1544B1B6803F4F6
:101920008023002B09D10123FB7306E00123FB7305
:1019300004E000BF02E000BF00E000BFFB7B002B23
:101940000DD14A4BDB6823F073027B6819687B6812
:101950005B68013B1B010B4344491343CB60FB7B9A
:10196000002B7DD1414B1B68404A23F080631360FC
:1019700002F028F8B86009E002F024F80246BB68DB
:10198000D31A022B02D90323FB7305E0374B1B68E4
:1019900003F00063002BEFD1FB7B002B60D13B6891
:1019A000002B11D1314B1B6923F41F3323F44073F7
:1019B0007A68926811027A68D268120952040A435E
:1019C0002A4913430B6127E03B68012B12D1274BB7
:1019D0001B6923F4C00323F4FE437A689268110262
:1019E0007A6812695208013A52050A431F491343A3
:1019F0000B6111E01D4B1B6923F0C06323F4FE4310
:101A00007A68926811027A6852695208013A52065D
:101A10000A43164913430B61144B1B68134A43F0E6
:101A20008063136001F0CEFFB86009E001F0CAFFE7
:101A30000246BB68D31A022B02D90323FB7305E0CD
:101A40000A4B1B6803F00063002BEFD0FB7B002BDD
:101A500006D1064B1A697B689B69044913430B61E5
:101A6000FB7B18461037BD4680BD00BF001002400A
:101A700080B584B000AF786039600023FB736A4B97
:101A8000DB6803F00303002B18D0674BDB6803F01F
:101A900003027B681B689A420DD17B681B68002B90
:101AA00009D0614BDB681B0903F007035A1C7B68F4
:101AB0005B689A4247D00123FB7344E07B681B6854
:101AC000032B18D0032B25D8012B02D0022B09D0D1
:101AD00020E0554B1B6803F00203002B1DD10123AE
:101AE000FB731AE0504B1B6803F48063002B16D184
:101AF0000123FB7313E04C4B1B6803F40033002BF2
:101B00000FD1494B1B6803F48023002B09D101231B
:101B1000FB7306E00123FB7304E000BF02E000BF9B
:101B200000E000BFFB7B002B0DD13F4BDB6823F0B7
:101B300073027B6819687B685B68013B1B010B4380
:101B400039491343CB60FB7B002B67D1364B1B68B5
:101B5000354A23F08053136001F034FFB86009E088
:101B600001F030FF0246BB68D31A022B02D90323CF
:101B7000FB7305E02C4B1B6803F00053002BEFD1E7
:101B8000FB7B002B4AD13B68002B11D1264B5B69B4
:101B900023F41F3323F440737A68926811027A6841
:101BA000D268120952040A431F4913434B6111E0E2
:101BB0001D4B5B6923F0C06323F4FE437A6892688F
:101BC00011027A6812695208013A52060A4316490C
:101BD00013434B61144B1B68134A43F0805313604B
:101BE00001F0F0FEB86009E001F0ECFE0246BB68CF
:101BF000D31A022B02D90323FB7305E00A4B1B689F
:101C000003F00053002BEFD0FB7B002B06D1064BDB
:101C10005A697B685B69044913434B61FB7B184637
:101C20001037BD4680BD00BF0010024080B588B0AF
:101C300000AF78607B68002B01D10123CAE3974B8A
:101C40009B6803F00C03BB61944BDB6803F0030358
:101C50007B617B681B6803F01003002B00F0E480BD
:101C6000BB69002B07D0BB690C2B40F08B807B69D4
:101C7000012B40F08780894B1B6803F00203002B87
:101C800005D07B689B69002B01D10123A2E37B680F
:101C90001A6A824B1B6803F00803002B04D07F4BA9
:101CA0001B6803F0F00305E07C4BD3F894301B096C
:101CB00003F0F003934223D27B681B6A184600F0BE
:101CC00055FD0346002B01D0012383E3734B1B68B2
:101CD000724A43F008031360704B1B6823F0F00254
:101CE0007B681B6A6D4913430B606C4B5B6823F484
:101CF0007F427B68DB691B02684913434B6025E028
:101D0000664B1B68654A43F008031360634B1B680E
:101D100023F0F0027B681B6A604913430B605F4B42
:101D20005B6823F47F427B68DB691B025B491343DA
:101D30004B60BB69002B09D17B681B6A184600F019
:101D400015FD0346002B01D0012343E300F04AFCBC
:101D50000246524B9B681B0903F00F035049CB5CB2
:101D600003F01F0322FA03F34E4A13604E4B1B6825
:101D7000184601F0D7FD0346FB73FB7B002B52D0C6
:101D8000FB7B27E37B689B69002B32D0434B1B68AE
:101D9000424A43F00103136001F014FE386108E089
:101DA00001F010FE02463B69D31A022B01D903232E
:101DB00010E33A4B1B6803F00203002BF0D0374BC3
:101DC0001B68364A43F008031360344B1B6823F04A
:101DD000F0027B681B6A314913430B602F4B5B6831
:101DE00023F47F427B68DB691B022C4913434B6061
:101DF0001AE02A4B1B68294A23F00103136001F003
:101E0000E1FD386108E001F0DDFD02463B69D31ACF
:101E1000022B01D90323DDE2204B1B6803F00203F0
:101E2000002BF0D100E000BF7B681B6803F00103CA
:101E3000002B74D0BB69082B05D0BB690C2B0ED1CD
:101E40007B69032B0BD1154B1B6803F40033002B6C
:101E500064D07B685B68002B60D10123BAE27B68A9
:101E60005B68B3F5803F06D10C4B1B680B4A43F40B
:101E70008033136026E07B685B68B3F5A02F15D133
:101E8000064B1B68054A43F480231360034B1B6811
:101E9000024A43F48033136014E000BF0010024094
:101EA000E44900080000002004000020A04B1B684B
:101EB0009F4A23F4803313609D4B1B689C4A23F494
:101EC000802313607B685B68002B13D001F07AFDE0
:101ED000386108E001F076FD02463B69D31A642BB5
:101EE00001D9032376E2924B1B6803F40033002BE5
:101EF000F0D014E001F066FD386108E001F062FD09
:101F000002463B69D31A642B01D9032362E2884B52
:101F10001B6803F40033002BF0D100E000BF7B68A6
:101F20001B6803F00203002B60D0BB69042B05D0B3
:101F3000BB690C2B19D17B69022B16D17C4B1B681A
:101F400003F48063002B05D07B68DB68002B01D194
:101F500001233FE2764B5B6823F0F8527B681B69F4
:101F60001B06734913434B6040E07B68DB68002B22
:101F700023D06F4B1B686E4A43F48073136001F0EB
:101F800021FD386108E001F01DFD02463B69D31ACE
:101F9000022B01D903231DE2654B1B6803F4806308
:101FA000002BF0D0624B5B6823F0F8527B681B6912
:101FB0001B065F4913434B6018E05D4B1B685C4A8E
:101FC00023F48073136001F0FDFC386108E001F038
:101FD000F9FC02463B69D31A022B01D90323F9E12C
:101FE000534B1B6803F48063002BF0D17B681B68A4
:101FF00003F00803002B3CD07B685B69002B1CD0EE
:102000004B4BD3F894304A4A43F00103C2F8943062
:1020100001F0D8FC386108E001F0D4FC02463B69CD
:10202000D31A022B01D90323D4E1414BD3F89430C6
:1020300003F00203002BEFD01BE03D4BD3F89430AC
:102040003B4A23F00103C2F8943001F0BBFC386135
:1020500008E001F0B7FC02463B69D31A022B01D914
:102060000323B7E1324BD3F8943003F00203002B83
:10207000EFD17B681B6803F00403002B00F0A680FF
:102080000023FB772A4B9B6D03F08053002B0DD16F
:10209000274B9B6D264A43F080539365244B9B6DE1
:1020A00003F08053BB60BB680123FB77214B1B68A7
:1020B00003F48073002B18D11E4B1B681D4A43F498
:1020C0008073136001F07EFC386108E001F07AFC57
:1020D00002463B69D31A022B01D903237AE1154B3F
:1020E0001B6803F48073002BF0D07B689B68012B86
:1020F00008D10F4BD3F890300D4A43F00103C2F8DA
:10210000903029E07B689B68052B15D1084BD3F8EC
:102110009030074A43F00403C2F89030044BD3F8E0
:102120009030034A43F00103C2F8903014E000BF3E
:1021300000100240007000409C4BD3F890309B4A46
:1021400023F00103C2F89030984BD3F89030974AAF
:1021500023F00403C2F890307B689B68002B16D0F4
:1021600001F030FC38610AE001F02CFC02463B69CA
:10217000D31A41F28832934201D903232AE18B4BCF
:10218000D3F8903003F00203002BEDD015E001F0FE
:1021900019FC38610AE001F015FC02463B69D31ACC
:1021A00041F28832934201D9032313E17F4BD3F8E4
:1021B000903003F00203002BEDD1FB7F012B05D102
:1021C0007A4B9B6D794A23F0805393657B689B6AB9
:1021D000002B00F0FE807B689B6A022B40F0D080D1
:1021E000724BDB687B617B6903F003027B68DB6A0F
:1021F0009A4230D17B6903F070027B681B6B013B14
:102200001B019A4227D17B6903F4FE427B685B6B1A
:102210001B029A421FD17B6903F400337A68926BE8
:10222000072A14BF01220022D2B2934213D17B6944
:1022300003F4C0027B68DB6B5B08013B5B059A42E1
:1022400009D17B6903F0C0627B681B6C5B08013BB2
:102250005B069A426ED0BB690C2B69D0534B1B684E
:1022600003F08063002B05D1504B1B6803F08053B3
:10227000002B01D00123ADE04C4B1B684B4A23F0EF
:102280008073136001F09EFB386108E001F09AFB57
:1022900002463B69D31A022B01D903239AE0434B30
:1022A0001B6803F00073002BF0D1404BDA68404B01
:1022B00013407A68D16A7A68126B013A12011143AD
:1022C0007A68526B120211437A68D26B5208013A53
:1022D000520511437A68126C5208013A52061143B2
:1022E0007A68926B120952040A4330491343CB6057
:1022F0002E4B1B682D4A43F0807313602B4BDB6819
:102300002A4A43F08073D36001F05CFB386108E037
:1023100001F058FB02463B69D31A022B01D9032373
:1023200058E0224B1B6803F00073002BF0D050E004
:1023300001234FE01D4B1B6803F00073002B48D1B5
:102340001A4B1B68194A43F080731360174BDB6804
:10235000164A43F08073D36001F034FB386108E023
:1023600001F030FB02463B69D31A022B01D903234B
:1023700030E00E4B1B6803F00073002BF0D028E018
:10238000BB690C2B23D0094B1B68084A23F08073D0
:10239000136001F017FB38610CE001F013FB0246FB
:1023A0003B69D31A022B05D9032313E00010024026
:1023B0008C809DF9094B1B6803F00073002BECD156
:1023C000064BDA680549064B1340CB6001E0012358
:1023D00000E0002318462037BD4680BD00100240B3
:1023E000FCFFEEFE80B584B000AF786039607B689A
:1023F000002B01D10123E7E0754B1B6803F00703B5
:102400003A689A4210D9724B1B6823F00702704950
:102410003B6813430B606E4B1B6803F007033A687D
:102420009A4201D00123CFE07B681B6803F00203CE
:10243000002B10D07B689A68664B9B6803F0F00312
:102440009A4208D9634B9B6823F0F0027B689B6833
:10245000604913438B607B681B6803F00103002B0A
:102460004CD07B685B68032B07D15A4B1B6803F089
:102470000073002B21D10123A6E07B685B68022B4F
:1024800007D1544B1B6803F40033002B15D10123F3
:102490009AE07B685B68002B07D14E4B1B6803F00A
:1024A0000203002B09D101238EE04A4B1B6803F481
:1024B0008063002B01D1012386E0464B9B6823F00B
:1024C00003027B685B68434913438B6001F07AFA2F
:1024D000F8600AE001F076FA0246FB68D31A41F28E
:1024E0008832934201D903236EE03A4B9B6803F094
:1024F0000C027B685B689B009A42EBD17B681B688F
:1025000003F00203002B10D07B689A68314B9B6864
:1025100003F0F0039A4208D22E4B9B6823F0F0029E
:102520007B689B682B4913438B60294B1B6803F026
:1025300007033A689A4210D2254B1B6823F0070222
:1025400023493B6813430B60214B1B6803F00703CF
:102550003A689A4201D0012336E07B681B6803F099
:102560000403002B08D01B4B9B6823F4E0627B68BC
:10257000DB68184913438B607B681B6803F0080312
:10258000002B09D0134B9B6823F460527B681B69B6
:10259000DB00104913438B6000F024F802460D4B1A
:1025A0009B681B0903F00F030B49CB5C03F01F036F
:1025B00022FA03F3094A1360094B1B68184601F01D
:1025C000B1F90346FB72FB7A18461037BD4680BD51
:1025D0000020024000100240E449000800000020F2
:1025E0000400002080B489B000AF0023FB61002309
:1025F000BB613E4B9B6803F00C033B613B4BDB68CC
:1026000003F00303FB603B69002B05D03B690C2BF7
:1026100021D1FB68012B1ED1344B1B6803F008034A
:10262000002B07D1314BD3F894301B0A03F00F0372
:10263000FB6105E02D4B1B681B0903F00F03FB61D9
:102640002B4AFB6952F82330FB613B69002B0DD10B
:10265000FB69BB610AE03B69042B02D1254BBB61DE
:1026600004E03B69082B01D1234BBB613B690C2B78
:1026700034D11E4BDB6803F00303BB60BB68022B45
:1026800003D0BB68032B03D005E01A4B7B6105E048
:10269000194B7B6102E0FB697B6100BF134BDB6878
:1026A0001B0903F0070301337B60104BDB681B0A37
:1026B00003F07F037A6903FB02F27B68B2FBF3F35A
:1026C0007B610A4BDB685B0E03F0030301335B00A5
:1026D0003B607A693B68B2FBF3F3BB61BB691846A8
:1026E0002437BD465DF8047B704700BF00100240F0
:1026F000FC4900080024F40000127A0080B400AF06
:10270000034B1B681846BD465DF8047B704700BF4D
:102710000000002080B500AFFFF7F0FF0246064B37
:102720009B681B0A03F007030449CB5C03F01F03FB
:1027300022FA03F3184680BD00100240F449000855
:1027400080B500AFFFF7DAFF0246064B9B68DB0A55
:1027500003F007030449CB5C03F01F0322FA03F3E1
:10276000184680BD00100240F449000880B586B0CC
:1027700000AF786000233B612A4B9B6D03F08053D0
:10278000002B03D0FEF712FD786114E0254B9B6D02
:10279000244A43F080539365224B9B6D03F0805392
:1027A000FB60FB68FEF702FD78611E4B9B6D1D4AC6
:1027B00023F0805393657B69B3F5007F0BD17B6871
:1027C000802B19D97B68A02B02D902233B6113E02F
:1027D00001233B6110E07B68802B02D903233B611E
:1027E0000AE07B68802B02D102233B6104E07B6816
:1027F000702B01D101233B610B4B1B6823F00702B7
:1028000009493B6913430B60074B1B6803F007033F
:102810003A699A4201D0012300E000231846183794
:10282000BD4680BD001002400020024080B584B04B
:1028300000AF78600123FB737B68002B6CD07B6852
:1028400093F82130DBB2002B06D17B68002283F89D
:1028500020207868FEF752F87B68022283F8212056
:102860007B681B68CA225A627B681B6853225A62C3
:10287000786800F049FA0346FB73FB7B002B4BD1D1
:102880007B681B689B687A68126823F4E00323F076
:10289000400393607B681B6899687B685A687B6813
:1028A0001B691A437B689B691A437B681B680A4350
:1028B0009A607B681B687A68D2681A617B681B68BB
:1028C00019697B689B681A047B681B680A431A6154
:1028D000786800F04DFA0346FB73FB7B002B1BD19D
:1028E0007B681B68DA6C7B681B6822F00302DA6481
:1028F0007B681B68D96C7B68DA697B685B691A4303
:102900007B681B680A43DA647B681B68FF225A6293
:102910007B68012283F82120FB7B18461037BD46D7
:1029200080BD90B587B000AFF860B9607A60FB6891
:1029300093F82030012B01D102238BE0FB680122A8
:1029400083F82020FB68022283F82120FB681B68A3
:10295000CA225A62FB681B6853225A62F86800F068
:10296000D3F90346FB74FB7C002B63D17B68002BFF
:1029700026D1FB681B689B6803F04003002B02D143
:10298000BB680022DA70BB681B78184600F02EFA8C
:1029900003461C04BB685B78184600F027FA034620
:1029A0001B021C43BB689B78184600F01FFA0346C5
:1029B00044EA0302BB68DB789B0513437B6118E0A4
:1029C000FB681B689B6803F04003002B02D1BB68C7
:1029D0000022DA70BB681B781A04BB685B781B02A4
:1029E0001343BA6892781A43BB68DB789B0513439C
:1029F0007B61FB681A687B6903F07F3323F0FE4339
:102A00001360FB681B689A68FB681B6822F48022CD
:102A10009A60FB681B689968BB68DA68BB681B69C9
:102A20001A43FB681B680A439A60F86800F0A0F933
:102A30000346FB74FB681B68FF225A62FB7C002B79
:102A400003D1FB68012283F82120FB68002283F870
:102A50002020FB7C18461C37BD4690BD80B586B053
:102A600000AFF860B9607A60FB681B689A6ABB685F
:102A70005A60FB681B681B69C3F30E02BB689A604F
:102A8000FB681B681B6803F07F3323F0FE437B6108
:102A90007B691B0CDBB203F03F03DAB2BB681A7030
:102AA0007B691B0ADBB203F07F03DAB2BB685A70A2
:102AB0007B69DBB203F07F03DAB2BB689A707B6993
:102AC0009B0DDBB203F00103DAB2BB68DA707B68FE
:102AD000002B1AD1BB681B78184600F0A7F90346F3
:102AE0001A46BB681A70BB685B78184600F09EF9FE
:102AF00003461A46BB685A70BB689B78184600F0BC
:102B000095F903461A46BB689A7000231846183791
:102B1000BD4680BD90B587B000AFF860B9607A60FF
:102B2000FB6893F82030012B01D1022375E0FB688C
:102B3000012283F82020FB68022283F821207B6891
:102B4000002B0ED1BB685B7803F01003002B08D07C
:102B5000BB685B7823F01003DBB20A33DAB2BB68E0
:102B60005A707B68002B1CD1BB68DB78184600F0DC
:102B70003DF903461C04BB685B78184600F036F943
:102B800003461B021C43BB689B78184600F02EF9D5
:102B9000034644EA0302BB681B785B0313437B6173
:102BA0000EE0BB68DB781A04BB685B781B0213433A
:102BB000BA6892781A43BB681B785B0313437B6146
:102BC000FB681B68CA225A62FB681B6853225A6260
:102BD000F86800F099F80346FB74FB7C002B0CD1DD
:102BE000FB681A687B6923F07F4323F0C0035360BE
:102BF000F86800F0BDF80346FB74FB681B68FF2211
:102C00005A62FB7C002B03D1FB68012283F8212050
:102C1000FB68002283F82020FB7C18461C37BD4649
:102C200090BD80B586B000AFF860B9607A60FB688F
:102C30001B685B6823F07F4323F0C0037B617B69E3
:102C40001B0CDAB2BB68DA707B691B0ADBB203F0DB
:102C50001F03DAB2BB685A707B69DBB203F03F0333
:102C6000DAB2BB689A707B695B0BDBB203F00703D7
:102C7000DAB2BB681A707B68002B1AD1BB68DB78AC
:102C8000184600F0D3F803461A46BB68DA70BB68F2
:102C90005B78184600F0CAF803461A46BB685A70BB
:102CA000BB689B78184600F0C1F803461A46BB681B
:102CB0009A70002318461837BD4680BD80B584B091
:102CC00000AF78607B681B68DA687B681B6822F05D
:102CD000A002DA6000F076FEF86009E000F072FE13
:102CE0000246FB68D31AB3F57A7F01D9032307E0C4
:102CF0007B681B68DB6803F02003002BEED0002309
:102D000018461037BD4680BD80B584B000AF7860EE
:102D10000023FB737B681B68DB6803F04003002B18
:102D200020D17B681B684FF0FF32DA6000F04AFE6A
:102D3000B8600DE000F046FE0246BB68D31AB3F55A
:102D40007A7F05D90323FB737B68032283F8212054
:102D50007B681B68DB6803F04003002B02D1FB7B20
:102D6000032BE7D1FB7B18461037BD4680BD000022
:102D700080B584B000AF78600023FB731A4BDB682A
:102D8000194A23F08003D360174B9B6803F020039C
:102D9000002B0CD17868FFF791FF0346002B1ED063
:102DA0007B68032283F821200323FB7317E00E4B7B
:102DB0009B680D4A23F0200393607868FFF77EFF3D
:102DC0000346002B05D07B68032283F821200323D0
:102DD000FB73054B9B68044A43F020039360FB7B25
:102DE00018461037BD4680BD0028004080B485B02D
:102DF00000AF0346FB710023FB60FB79FB7205E02B
:102E0000FB680133FB60FB7A0A3BFB72FB7A092B00
:102E1000F6D8FB68DBB21B01DAB2FB7A1343DBB2F4
:102E200018461437BD465DF8047B704780B485B002
:102E300000AF0346FB71FB791B09DBB21A46920017
:102E400013445B00FB73FB7903F00F03DAB2FB7BE7
:102E50001344DBB218461437BD465DF8047B704757
:102E600080B582B000AF78607B68002B01D1012370
:102E700040E07B689B6F002B06D17B68002283F8C3
:102E800074207868FDF76CFD7B6824229A677B6864
:102E90001B681A687B681B6822F001021A60786858
:102EA00000F0C0F80346012B01D1012322E07B682A
:102EB0005B6A002B02D0786800F06CFB7B681B68B3
:102EC0005A687B681B6822F490425A607B681B68D2
:102ED0009A687B681B6822F02A029A607B681B68EC
:102EE0001A687B681B6842F001021A60786800F07B
:102EF000F3FB034618460837BD4680BD80B58AB04F
:102F000002AFF860B9603B601346FB80FB689B6FC3
:102F1000202B40F08280BB68002B02D0FB88002B66
:102F200001D101237AE0FB6893F87430012B01D1C1
:102F3000022373E0FB68012283F87420FB680022FF
:102F4000C3F88020FB6821229A6700F03BFD78617E
:102F5000FB68FA88A3F85020FB68FA88A3F852208F
:102F6000FB689B68B3F5805F08D1FB681B69002B89
:102F700004D10023FB61BB68BB6103E0BB68FB615C
:102F80000023BB61FB68002283F874202DE03B68BE
:102F900000937B6900228021F86800F0E6FB03467D
:102FA000002B01D0032339E0FB69002B0BD1BB6957
:102FB0001A88FB681B68C2F3080292B21A85BB69C3
:102FC0000233BB6108E0FB691A78FB681B6892B2A8
:102FD0001A85FB690133FB61FB68B3F852309BB281
:102FE000013B9AB2FB68A3F85220FB68B3F8523059
:102FF0009BB2002BCBD13B6800937B690022402120
:10300000F86800F0B2FB0346002B01D0032305E073
:10301000FB6820229A67002300E00223184620372D
:10302000BD4680BD2DE9B04F8AB000AFF8600023E7
:1030300087F82230FB689A68FB681B691A43FB68B3
:103040005B691A43FB68DB6913437B62FB681B689F
:103050001A68A44B1340FA681268796A0B4313602C
:10306000FB681B685B6823F44051FB68DA68FB6807
:103070001B680A435A60FB689B697B62FB681B689C
:10308000994A934204D0FB681B6A7A6A13437B62B5
:10309000FB681B689B6823F43061FB681B687A6AD5
:1030A0000A439A60FB681B68904A934226D1904B72
:1030B000D3F8883003F00303032B1BD801A252F886
:1030C00023F000BFD5300008E5300008DD300008EF
:1030D000ED300008012387F8233016E1022387F83A
:1030E000233012E1042387F823300EE1082387F808
:1030F00023300AE1102387F8233006E1FB681B68C0
:103100007C4A934238D17A4BD3F8883003F00C03D1
:103110000C2B2DD801A252F823F000BF513100082A
:103120007131000871310008713100086131000807
:1031300071310008713100087131000859310008FF
:1031400071310008713100087131000869310008DF
:10315000002387F82330D8E0022387F82330D4E017
:10316000042387F82330D0E0082387F82330CCE00D
:10317000102387F82330C8E0FB681B685E4A93423F
:1031800025D15B4BD3F8883003F03003302B16D0B9
:10319000302B18D8202B0AD0202B14D8002B02D08B
:1031A000102B08D00FE0002387F82330ADE0022376
:1031B00087F82330A9E0042387F82330A5E008230B
:1031C00087F82330A1E0102387F823309DE0FB68C7
:1031D0001B684A4A934225D1454BD3F8883003F007
:1031E000C003C02B16D0C02B18D8802B0AD0802B40
:1031F00014D8002B02D0402B08D00FE0002387F812
:10320000233082E0022387F823307EE0042387F80E
:1032100023307AE0082387F8233076E0102387F8FC
:10322000233072E0FB681B68354A93422AD1304B49
:10323000D3F8883003F44073B3F5407F1AD0B3F568
:10324000407F1BD8B3F5007F0CD0B3F5007F15D8B5
:10325000002B03D0B3F5807F08D00FE0002387F860
:10326000233052E0022387F823304EE0042387F80E
:1032700023304AE0082387F8233046E0102387F8FC
:10328000233042E0FB681B68174A93423AD1184B3F
:10329000D3F8883003F44063B3F5406F1AD0B3F528
:1032A000406F1BD8B3F5006F0CD0B3F5006F15D885
:1032B000002B03D0B3F5806F08D00FE0002387F810
:1032C000233022E0022387F823301EE0042387F80E
:1032D00023301AE0082387F8233016E0102387F8FC
:1032E000233012E0F369FFEF008000400038014016
:1032F000001002400044004000480040004C0040E4
:1033000000500040102387F82330FB681B689F4A59
:1033100093427AD197F82330082B24D801A252F88F
:1033200023F000BF49330008673300085133000819
:103330006733000857330008673300086733000815
:10334000673300085F330008FFF7E4F9F86110E025
:103350008F4BFB610DE0FFF745F9F86109E04FF491
:103360000043FB6105E00023FB61012387F8223065
:1033700000BFFB69002B00F0FB80FB685A68134616
:103380005B001344FA699A4205D3FB685B681B0330
:10339000FA699A4203D9012387F82230E8E0FB69F1
:1033A00000221C4615464FF000024FF000032B028E
:1033B00043EA14632202F9684968490800208846F4
:1033C000814612EB080A43EB090BFB685B6800229D
:1033D0003B607A60D7E9002350465946FCF7F8FE77
:1033E00002460B461346BB61BB69B3F5407F08D369
:1033F000BB69B3F5801F04D2FB681B68BA69DA6049
:10340000B6E0012387F82230B2E0FB68DB69B3F550
:10341000004F5ED197F82330082B28D801A252F82C
:1034200023F000BF49340008513400085934000823
:103430006F3400085F3400086F3400086F340008F0
:103440006F34000867340008FFF764F9F86114E08E
:10345000FFF776F9F86110E04D4BFB610DE0FFF7E7
:10346000C1F8F86109E04FF40043FB6105E0002377
:10347000FB61012387F8223000BFFB69002B77D066
:10348000FB695A00FB685B685B081A44FB685B6871
:10349000B2FBF3F3BB61BB690F2B16D9BB69B3F564
:1034A000803F12D2BB699BB223F00F03FB82BB6942
:1034B0005B089BB203F007039AB2FB8A1343FB82BB
:1034C000FB681B68FA8ADA6052E0012387F8223031
:1034D0004EE097F82330082B27D801A252F823F0AA
:1034E000053500080D350008153500082B35000896
:1034F0001B3500082B3500082B3500082B3500083C
:1035000023350008FFF706F9F86114E0FFF718F912
:10351000F86110E01E4BFB610DE0FFF763F8F86106
:1035200009E04FF40043FB6105E00023FB61012348
:1035300087F8223000BFFB69002B19D0FB685B685D
:103540005A08FB691A44FB685B68B2FBF3F3BB6182
:10355000BB690F2B09D9BB69B3F5803F05D2BB69A5
:103560009AB2FB681B68DA6002E0012387F8223018
:10357000FB6800225A66FB6800229A6697F82230A0
:1035800018462837BD46BDE8B08F00BF0080004018
:103590000024F40080B483B000AF78607B685B6A7D
:1035A00003F00103002B0AD07B681B685B6823F4DF
:1035B00000317B689A6A7B681B680A435A607B68A3
:1035C0005B6A03F00203002B0AD07B681B685B6810
:1035D00023F480317B68DA6A7B681B680A435A608F
:1035E0007B685B6A03F00403002B0AD07B681B68CE
:1035F0005B6823F480217B681A6B7B681B680A4335
:103600005A607B685B6A03F00803002B0AD07B6872
:103610001B685B6823F400417B685A6B7B681B68FE
:103620000A435A607B685B6A03F01003002B0AD0E0
:103630007B681B689B6823F480517B689A6B7B686E
:103640001B680A439A607B685B6A03F02003002BC7
:103650000AD07B681B689B6823F400517B68DA6B97
:103660007B681B680A439A607B685B6A03F04003CF
:10367000002B1AD07B681B685B6823F480117B6881
:103680001A6C7B681B680A435A607B681B6CB3F535
:10369000801F0AD17B681B685B6823F4C0017B68CC
:1036A0005A6C7B681B680A435A607B685B6A03F04C
:1036B0008003002B0AD07B681B685B6823F4002121
:1036C0007B689A6C7B681B680A435A6000BF0C37A2
:1036D000BD465DF8047B704780B586B002AF786068
:1036E0007B680022C3F8802000F06CF9F8607B68EA
:1036F0001B681B6803F00803082B0ED16FF07E4394
:103700000093FB6800224FF40011786800F02DF858
:103710000346002B01D0032323E07B681B681B6852
:1037200003F00403042B0ED16FF07E430093FB687B
:1037300000224FF48001786800F017F80346002B50
:1037400001D003230DE07B6820229A677B6820224A
:10375000DA677B6800221A667B68002283F874208F
:10376000002318461037BD4680BD80B59CB000AF21
:10377000F860B9603B601346FB71A5E0BB6FB3F125
:10378000FF3F00F0A18000F01DF902463B68D31A0C
:10379000BA6F9A4202D3BB6F002B3ED1FB681B6805
:1037A0003B653B6D53E8003FFB64FB6C23F4D07337
:1037B0007B66FB681B681A467B6EFB65BA65B96D54
:1037C000FA6D41E800237B657B6D002BE6D1FB6839
:1037D0001B680833FB63FB6B53E8003FBB63BB6BA9
:1037E00023F001033B66FB681B6808333A6EBA643A
:1037F0007B64796CBA6C41E800233B643B6C002B22
:10380000E5D1FB6820229A67FB682022DA67FB6813
:10381000002283F87420032367E0FB681B681B68A1
:1038200003F00403002B4FD0FB681B68DB6903F433
:103830000063B3F5006F47D1FB681B684FF400626B
:103840001A62FB681B68BB62BB6A53E8003F7B627D
:103850007B6A23F4D073FB66FB681B681A46FB6E19
:103860007B633A63396B7A6B41E80023FB62FB6A46
:10387000002BE6D1FB681B6808337B617B6953E84A
:10388000003F3B613B6923F00103BB66FB681B689B
:103890000833BA6E3A62FB61F9693A6A41E800237B
:1038A000BB61BB69002BE5D1FB6820229A67FB68EE
:1038B0002022DA67FB682022C3F88020FB68002200
:1038C00083F87420032310E0FB681B68DA69BB6887
:1038D0001340BA689A420CBF01230023DBB21A4698
:1038E000FB799A423FF44AAF002318467037BD4631
:1038F00080BD80B582B000AF0023FB710320FDF7CF
:1039000047FA0F2000F00EF80346002B02D00123E7
:10391000FB7101E0FCF7CEFFFB7918460837BD4686
:1039200080BD000080B584B000AF78600023FB73D9
:10393000174B1B78002B23D0164B1A68144B1B789F
:1039400019464FF47A73B3FBF1F3B2FBF3F3184665
:10395000FDF745FA0346002B0FD17B680F2B09D8E2
:10396000002279684FF0FF30FDF71DFA0A4A7B68A4
:10397000136007E00123FB7304E00123FB7301E004
:103980000123FB73FB7B18461037BD4680BD00BF8B
:1039900008000020000000200400002080B400AFD8
:1039A000064B1B781A46064B1B681344044A1360E7
:1039B00000BFBD465DF8047B704700BF08000020D3
:1039C0003801002080B400AF034B1B681846BD4689
:1039D0005DF8047B704700BF3801002080B584B0DB
:1039E00000AF7860FFF7EEFFB8607B68FB60FB68B4
:1039F000B3F1FF3F05D00A4B1B781A46FB6813440E
:103A0000FB6000BFFFF7DEFF0246BB68D31AFA680F
:103A10009A42F7D800BF00BF1037BD4680BD00BF37
:103A200008000020014B1868704700BF0C00002000
:103A300070B50D4D0D4C641BA4100026A64209D193
:103A40000B4D0C4C00F0AEFF641BA4100026A642E8
:103A500005D170BD55F8043B98470136EEE755F89F
:103A6000043B98470136F2E7CC4A0008CC4A0008EC
:103A7000CC4A0008D04A000802440346934200D1D1
:103A8000704703F8011BF9E70FB40A4B13B51C6824
:103A900024B1A36913B9204600F066F805AB049A77
:103AA000A1680193204600F0BDF902B0BDE81040C6
:103AB00004B070470C000020002310B50446C0E994
:103AC0000033C0E90433836081814366C28183612E
:103AD000194608225C30FFF7CFFF054B6362054BA8
:103AE000A362054BE362054B2462236310BD00BF54
:103AF000CD430008EF430008274400084B4400086A
:103B0000014900F0AFB800BF2547000870B5682232
:103B10004D1E55430E4605F1740100F0E5F80446CC
:103B200040B10021C0E900160C30A06005F1680228
:103B3000FFF7A2FF204670BD014800F0B3B800BFF8
:103B40003D010020014800F0AEB800BF3D0100205B
:103B5000014800F0A7B800BF3E010020014800F076
:103B6000A2B800BF3E01002010B50446FFF7F0FFE9
:103B7000A3691BB1BDE81040FFF7F0BFC4E91233E1
:103B80002365134B134A1B68A262A34204BF01239F
:103B9000A361204600F020F86060204600F01CF889
:103BA000A060204600F018F80022E0600421606860
:103BB000FFF782FFA06801220921FFF77DFFE0687F
:103BC00002221221FFF778FF0123A361D2E700BF91
:103BD0002C4A0008013B0008F8B50746FFF7ACFF88
:103BE0001E4B1E68B36913B93046FFF7BDFF483658
:103BF000D6E90134013B03D533680BB33668F7E7E8
:103C0000B4F90C50D5B9164BE36004F15800656661
:103C100000F047F8FFF796FFC4E90155C4E90455E1
:103C20002560A5610822294604F15C00FFF724FF06
:103C3000C4E90D55C4E912552046F8BD6834D9E7EA
:103C400004213846FFF762FF044630600028D5D1D2
:103C5000FFF778FF0C233B60EEE700BF2C4A00081B
:103C60000100FFFF2DE9F8430646884600F14804AD
:103C70000027D4E90195B9F1010905D52468002C84
:103C8000F7D13846BDE8F883AB89012B07D9B5F9E0
:103C90000E30013303D029463046C047074368350C
:103CA000E9E770477047704770B50E4E0C463168B3
:103CB000054611B900F07AFB30602146284600F035
:103CC00075FB431C0AD0C41C24F00304A04207D097
:103CD000211A284600F06AFB013001D14FF0FF3471
:103CE000204670BD440100202DE9F041CD1C25F097
:103CF000030508350C2D38BF0C25002D074601DBC8
:103D0000A94205D90C233B6000263046BDE8F0816E
:103D10002E4E00F0BBFD33681C4634BB29463846A6
:103D2000FFF7C2FF431C04464DD134682646002EDF
:103D300040D123683146384604EB030800F036FBD7
:103D400080453AD1216803356D1A25F00305083501
:103D50000C2D38BF0C2529463846FFF7A5FF01304A
:103D60002BD023682B4423600EE02268521B1ED404
:103D70000B2A16D96119A342256018BF59606368E0
:103D800008BF316062514B60384604F10B0600F009
:103D900083FD26F00706231DF21AB6D09B1BA35005
:103DA000B3E76268A3420CBF32605A60ECE7234677
:103DB0006468B2E734467668B9E70C233B6038465E
:103DC00000F06AFDA1E72560DEE700BF40010020AA
:103DD0009368013B002B10B4936008DA9469A34206
:103DE00001DB0A2903D15DF8044B00F033BB1368F3
:103DF000581C1060197008465DF8044B7047F8B500
:103E000006460F461446D518AC4201D1002007E003
:103E100014F8011B3A463046FFF7DAFF431CF3D192
:103E2000F8BD00002DE9F04F0D469DB014469846B0
:103E3000064618B183690BB9FFF796FE894B9D4280
:103E40001BD175686B6ED90705D4AB899A0502D46E
:103E5000A86DFFF727FFAB891B0701D52B69EBB9CD
:103E60002946304600F05AFBC0B16B6EDC070ED518
:103E70004FF0FF301DB0BDE8F08F7B4B9D4201D16C
:103E8000B568DFE7794B9D4208BFF568DAE7AB8993
:103E90009805EDD4A86DFFF706FFE9E70023099325
:103EA00020238DF82930CDF80C803023DFF8C08135
:103EB0008DF82A304FF0010923469A4613F8012B5A
:103EC0000AB1252AF9D1BAEB040B0BD05B46224686
:103ED00029463046FFF793FF013000F0AA80099A87
:103EE0005A4409929AF80030002B00F0A280002377
:103EF0004FF0FF32CDE905230AF1010A049307933D
:103F00008DF853301A935446052214F8011B584873
:103F1000FCF7E6FA049AD8B9D10644BF20238DF8FD
:103F20005330130744BF2B238DF853309AF80030D9
:103F30002A2B15D0079A544600204FF00A0C214630
:103F400011F8013B303B092B4ED9B0B1079214E078
:103F5000A0EB080309FA03F313430493A246D2E744
:103F6000039B191D1B680391002BBBBF5B4242F0F2
:103F7000020207930793B8BF049223782E2B0CD12B
:103F800063782A2B35D1039B1A1D1B680392002BE3
:103F9000B8BF4FF0FF3302340593DFF8E4A0217877
:103FA00003225046FCF79CFA40B14023A0EB0A00E4
:103FB00003FA00F0049B03430134049314F8011B3B
:103FC0002C488DF828100622FCF78AFA00283FD0EA
:103FD000294B1BBB039B073323F0070308330393D1
:103FE000099B3B44099367E70CFB02320C46012016
:103FF000A5E700230134059319464FF00A0C20462B
:1040000010F8012B303A092A03D9002BC5D00591AD
:10401000C3E70CFB012104460123F0E703AB009347
:104020002A46164B04A93046AFF300800746781C99
:10403000D6D16B6ED90705D4AB899A0502D4A86D89
:10404000FFF731FEAB895B063FF512AF099811E728
:1040500003AB00932A46094B04A9304600F080F8D0
:10406000E4E700BF504A0008704A0008304A0008E0
:10407000904A00089A4A000800000000FF3D00082E
:10408000964A00082DE9F047164699468A680B695A
:10409000DDF820809342B8BF1346336091F8432087
:1040A00007460C460AB1013333602368990642BFC4
:1040B000336802333360256815F0060506D104F134
:1040C000190AE36832689B1AAB4226DC94F8432055
:1040D000131E226818BF012392062BD404F1430259
:1040E00049463846C04701301ED02368E56832682B
:1040F00003F00603042B08BFAD1AA36822690CBFA6
:1041000025EAE57500259342C4BF9B1AED180026E9
:104110001A34B5421AD1002008E00123524649461C
:104120003846C047013003D14FF0FF30BDE8F0877B
:104130000135C6E7E1185A1C302081F843002244BB
:1041400094F8451082F843100233C7E70123224652
:1041500049463846C0470130E6D00136D9E700006D
:104160002DE9FF470F7E0C9D782F914680460C4627
:104170009A4601F1430207D8622F0AD8002F00F0B7
:10418000D880582F00F0A38004F1420584F84270D3
:104190003AE0A7F16303152BF6D801A151F823F0FB
:1041A000F94100080D4200088941000889410008D2
:1041B00089410008894100080D4200088941000832
:1041C0008941000889410008894100081943000815
:1041D0003D420008FB42000889410008894100086F
:1041E0003B430008894100083D420008894100081E
:1041F00089410008034300082B681A1D1B682A60C8
:1042000004F1420584F842300123A3E020682968C4
:10421000060601F104030AD50E682B60002E03DAAE
:104220002D23764284F843305E480A2319E00E6855
:104230002B6010F0400F18BF36B2EFE72B682068F4
:10424000191D2960010601D51E6802E04606FBD54E
:104250001E8854486F2F0CBF08230A23002184F8BE
:1042600043106568A560002DA2BF216821F00401FC
:1042700021600EB9002D4DD01546B6FBF3F103FBBE
:104280001167C75D05F8017D3746BB420E46F4D97C
:10429000082B0BD12368DE0708D523696168994292
:1042A000DEBF302305F8013C05F1FF35521B2261CA
:1042B000CDF800A04B4603AA21464046FFF7E2FE98
:1042C00001304CD14FF0FF3004B0BDE8F0873548E5
:1042D00081F845702968236851F8046B29601D0630
:1042E00014D5DF0744BF43F0200323601EB92368C1
:1042F00023F0200323601023B0E7236843F020035A
:1043000023607823284884F84530E3E7590648BFFE
:10431000B6B2E6E71546BBE72B6826686169181D4B
:10432000286035061B6801D5196002E07006FBD5D0
:104330001980002323611546BAE72B681A1D2A60ED
:104340001D68626800212846FCF7CAF808B1401BC6
:10435000606063682361002384F84330A8E7236921
:104360002A4649464046D0470130ABD023689B07D8
:1043700013D4E068039B9842B8BF1846A4E7012312
:10438000324649464046D04701309BD00135E3686C
:1043900003995B1AAB42F2DCEBE7002504F1190646
:1043A000F5E700BFA14A0008B24A000838B5064D3B
:1043B0000023044608462B60FCF7C6FB431C02D1D1
:1043C0002B6803B1236038BD4801002010B50C46AE
:1043D000B1F90E1000F0B2FA0028ABBF636DA389EB
:1043E0001B1823F48053ACBF6365A38110BD2DE976
:1043F000F0411F468B89DB0505460C46164605D560
:10440000B1F90E100223002200F0C8F9A389B4F913
:104410000E1023F48053A38132463B462846BDE864
:10442000F04100F069B810B50C46B1F90E1000F07B
:10443000B5F9431CA38915BF606523F4805343F489
:104440008053A38118BFA38110BDB1F90E1000F0F5
:10445000D3B80000F8B50E461446054618B1836976
:104460000BB9FFF781FB214B9C422BD16C68A369F0
:10447000A360A3891A072FD523696BB3236920682A
:10448000C01A6369F6B28342374604DC21462846E7
:1044900000F048F930BBA368013BA36023685A1CB5
:1044A00022601E7063690130834204D0A389DB0758
:1044B00006D50A2E04D12146284600F033F988B9E2
:1044C0003846F8BD0A4B9C4201D1AC68CFE7094B96
:1044D0009C4208BFEC68CAE72146284600F01EF857
:1044E0000028CBD04FF0FF37EAE700BF504A000862
:1044F000704A0008304A000838B5074D044608469F
:10450000114600222A601A46FCF7CDFA431C02D15C
:104510002B6803B1236038BD48010020324B70B5D1
:104520001D6806460C4625B1AB6913B92846FFF74E
:104530001BFB2E4B9C420FD16C68A389B4F90C2055
:1045400019072CD4DD0611D40923336042F040034F
:10455000A3814FF0FF303EE0254B9C4201D1AC6877
:10456000EBE7244B9C4208BFEC68E6E7580712D5FE
:10457000616B41B104F14403994202D0304600F02E
:1045800091F900236363A38923F02403A38100230B
:10459000636023692360A38943F00803A38123692F
:1045A0004BB9A38903F42073B3F5007F03D02146F0
:1045B000304600F02BF9A089B4F90C2010F001036B
:1045C0000AD00023A36063695B42A361236943B9F6
:1045D00010F08000BAD170BD810758BF6369A36035
:1045E000F4E70020F7E700BF0C000020504A000865
:1045F000704A0008304A000838B5064D00230446CA
:1046000008462B60FCF76BFA431C02D12B6803B100
:10461000236038BD480100208A892DE9F041054614
:1046200010070C4658D44B68002B05DC0B6C002B94
:1046300002DC0020BDE8F081E66A002EF9D00023FC
:1046400012F480522F682B6032D0606DA3895A0714
:1046500005D56368C01A636B0BB1236CC01A0023C5
:104660000246E66A216A2846B047431CA38906D160
:1046700029681D292CD82A4ACA40D60728D50022E5
:104680006260D9042269226004D5421C01D12B68E2
:1046900003B96065616B2F600029CAD004F144033F
:1046A000994202D0284600F0FDF800206063C1E77F
:1046B000216A01232846B047411CC7D12B68002B33
:1046C000C4D01D2B01D0162B01D12F60B1E7A389D7
:1046D00043F04003A381ADE70F69002FA9D09307F2
:1046E0000E6808BF4B690F6018BF0023A6EB0708D0
:1046F0008B60B8F1000F9CDD216AA66A43463A46FA
:104700002846B047002806DCA38943F04003A38174
:104710004FF0FF308EE70744A8EB0008E9E700BF41
:104720000100402038B50B6905460C4613B9002539
:10473000284638BD18B183690BB9FFF715FA144B39
:104740009C421BD16C68B4F90C30002BEFD0626E28
:10475000D00704D4990502D4A06DFFF7A3FA284628
:104760002146FFF759FF636EDA070546E0D4A389B7
:104770009B05DDD4A06DFFF796FAD9E7054B9C4267
:1047800001D1AC68DFE7044B9C4208BFEC68DAE774
:10479000504A0008704A0008304A000838B5074DF2
:1047A00004460846114600222A601A46FCF7BEF964
:1047B000431C02D12B6803B1236038BD480100209F
:1047C00070B50E46B1F90E10002996B014461D467C
:1047D00008DAB6F90C3000222A601A0610D44FF419
:1047E00080630EE06A4600F0BBF80028F1DB019A16
:1047F00002F47042A2F500535A425A412A60EEE791
:1048000040230020236016B070BD00008B8973B573
:104810009D0706460C4607D504F147032360236134
:104820000123636102B070BD01AB6A46FFF7C8FFA8
:10483000009905463046FFF757FA48B9B4F90C30ED
:104840009A05EFD423F0030343F00203A381E3E7C7
:104850000D4BB362A389206043F08003A381009BCA
:104860006361019B20615BB1B4F90E10304600F02A
:1048700089F828B1A38923F0030343F00103A3813E
:10488000A0890543A581CDE7013B00080148FFF75A
:1048900009BA00BF3C0100200148FFF704BA00BF7D
:1048A0003C01002037B5002944D051F8043C019068
:1048B000002BA1F10404B8BFE418FFF7E7FF1E4A7C
:1048C0000198136833B96360146003B0BDE83040E9
:1048D000FFF7E2BFA34208D9256861198B4201BFE7
:1048E00019685B6849192160EDE71A465B680BB1EE
:1048F000A342FAD911685518A5420BD12468214466
:104900005418A3421160E0D11C685B6853602144D5
:104910001160DAE702D90C230360D6E72568611934
:104920008B4204BF19685B68636004BF491921604A
:104930005460CAE703B030BD4001002038B5074DD0
:1049400004460846114600222A601A46FCF78EF8F3
:10495000431C02D12B6803B1236038BD48010020FD
:1049600038B5074D00230446084611462B60FCF776
:10497000C2F8431C02D12B6803B1236038BD00BFCD
:104980004801002038B5064D0023044608462B6038
:10499000FCF7C1F8431C02D12B6803B1236038BD7A
:1049A00048010020F8B500BFF8BC08BC9E4670471F
:0C49B000F8B500BFF8BC08BC9E4670477C
:1049BC005254433A20253034642D253032642D2551
:1049CC003032642C20253032643A253032643A255A
:1049DC003032640A000000000000000000000000FB
:1049EC000102030406070809000000000102030489
:1049FC00A0860100400D0300801A060000350C0053
:104A0C0040420F0080841E0000093D0000127A0015
:104A1C000024F40000366E010048E801006CDC0252
:104A2C00100000200000000000000000000000004A
:104A3C00000000000000000000000000000000006A
:104A4C00000000000000000000000000000000005A
:104A5C00000000000000000000000000000000004A
:104A6C00000000000000000000000000000000003A
:104A7C00000000000000000000000000000000002A
:104A8C0000000000232D302B2000686C4C00656664
:104A9C006745464700303132333435363738394183
:104AAC004243444546003031323334353637383999
:084ABC0061626364656600009D
:084AC4003CB7FF7F0100000078
:044ACC00B501000828
:044AD0009101000848
:104AD40000093D001000000001000000100000204B
:104AE40000000000504A0008704A0008304A0008DC
:104AF40000000000000000000000000000000000B2
:104B040000000000000000000000000000000000A1
:104B14000000000000000000000000000000000091
:104B24000000000000000000000000000000000081
:104B34000000000000000000000000000000000071
:0400000508000BD90B
:00000001FF
