:020000040800F2
:1000000000800120C90900085109000857090008AB
:100010005D09000863090008690900080000000084
:100020000000000000000000000000006F09000850
:100030007D090008000000008B09000899090008EC
:10004000190A0008190A0008190A0008190A000804
:10005000190A0008190A0008190A0008190A0008F4
:10006000190A0008190A0008190A0008190A0008E4
:10007000190A0008190A0008190A0008190A0008D4
:10008000190A0008190A0008190A0008190A0008C4
:10009000190A0008190A0008190A0008190A0008B4
:1000A000190A0008190A0008190A0008190A0008A4
:1000B000190A0008190A0008190A0008190A000894
:1000C000190A0008190A0008190A0008190A000884
:1000D000190A0008190A0008190A0008190A000874
:1000E000190A0008190A0008190A0008190A000864
:1000F000190A0008190A0008190A0008190A000854
:10010000190A0008190A0008190A0008190A000843
:10011000190A0008190A0008190A0008190A000833
:10012000190A0008190A0008190A0008190A000823
:10013000190A0008190A0008190A0008190A000813
:10014000190A0008190A0008190A0008190A000803
:10015000190A0008190A0008190A0008190A0008F3
:10016000190A0008190A0008190A0008190A0008E3
:10017000190A0008190A0008190A000800000000FE
:08018000190A0008190A000821
:1001880010B5054C237833B9044B13B10448AFF3C9
:1001980000800123237010BD0C0000200000000027
:1001A8007835000808B5034B1BB103490348AFF382
:1001B800008008BD0000000010000020783500080D
:1001C80053B94AB9002908BF00281CBF4FF0FF31B6
:1001D8004FF0FF3000F074B9ADF1080C6DE904CEB2
:1001E80000F006F8DDF804E0DDE9022304B070470A
:1001F8002DE9F047089D04468E46002B4DD18A42D2
:10020800944669D9B2FA82F252B101FA02F3C2F104
:10021800200120FA01F10CFA02FC41EA030E944095
:100228004FEA1C48210CBEFBF8F61FFA8CF708FBB6
:1002380016E341EA034306FB07F199420AD91CEB8E
:10024800030306F1FF3080F01F81994240F21C81C0
:10025800023E63445B1AA4B2B3FBF8F008FB103308
:1002680044EA034400FB07F7A7420AD91CEB04043D
:1002780000F1FF3380F00A81A74240F2078164440D
:10028800023840EA0640E41B00261DB1D440002392
:10029800C5E900433146BDE8F0878B4209D9002DF6
:1002A80000F0EF800026C5E9000130463146BDE880
:1002B800F087B3FA83F6002E4AD18B4202D38242EA
:1002C80000F2F980841A61EB030301209E46002D99
:1002D800E0D0C5E9004EDDE702B9FFDEB2FA82F2EE
:1002E800002A40F09280A1EB0C014FEA1C471FFA4C
:1002F8008CFE0126200CB1FBF7F307FB131140EA33
:1003080001410EFB03F0884208D91CEB010103F1FF
:10031800FF3802D2884200F2CB804346091AA4B2C1
:10032800B1FBF7F007FB101144EA01440EFB00FE95
:10033800A64508D91CEB040400F1FF3102D2A645FA
:1003480000F2BB800846A4EB0E0440EA03409CE799
:10035800C6F12007B34022FA07FC4CEA030C20FA46
:1003680007F401FA06F31C43F9404FEA1C4900FA66
:1003780006F3B1FBF9F8200C1FFA8CFE09FB1811E3
:1003880040EA014108FB0EF0884202FA06F20BD956
:100398001CEB010108F1FF3A80F08880884240F2A6
:1003A8008580A8F102086144091AA4B2B1FBF9F0EA
:1003B80009FB101144EA014100FB0EFE8E4508D9E5
:1003C8001CEB010100F1FF346CD28E456AD902386A
:1003D800614440EA0840A0FB0294A1EB0E01A1424F
:1003E800C846A64656D353D05DB1B3EB080261EBBD
:1003F8000E0101FA07F722FA06F3F1401F43C5E997
:10040800007100263146BDE8F087C2F12003D840CC
:100418000CFA02FC21FA03F3914001434FEA1C470E
:100428001FFA8CFEB3FBF7F007FB10360B0C43EA00
:10043800064300FB0EF69E4204FA02F408D91CEBB0
:10044800030300F1FF382FD29E422DD902386344AE
:100458009B1B89B2B3FBF7F607FB163341EA03414E
:1004680006FB0EF38B4208D91CEB010106F1FF389D
:1004780016D28B4214D9023E6144C91A46EA004694
:1004880038E72E46284605E70646E3E61846F8E626
:100498004B45A9D2B9EB020864EB0C0E0138A3E76F
:1004A8004646EAE7204694E74046D1E7D0467BE750
:1004B800023B614432E7304609E76444023842E7C8
:1004C800704700BF80B500AF4FF40051054800F0F9
:1004D80031FD0346002B01D1012300E0002318461B
:1004E80080BD00BF0008004880B584B000AF02F0AE
:1004F8007AFF00F049F800F021F900F0EFF800F079
:10050800C5F800F0A5F81723FB700B237B701323A5
:10051800BB7002233B703B4600221946184802F084
:100528006EF90023FB600AE020214FF0904000F0B4
:1005380031FD642002F0CCFFFB680133FB60FB68EF
:10054800092BF1DD02F0B8FFB86002F0B5FF786062
:10055800FFF7B8FF0346002B00D0FEE77A68BB68B8
:10056800D31AB3F5FA7FF0D320214FF0904000F072
:1005780011FD7B68BB60034800F075FDE5E700BF2F
:10058800380000202800002080B596B000AF07F1A1
:10059800140344220021184602F0E2FF3B460022E1
:1005A8001A605A609A60DA601A614FF4007000F0BD
:1005B80079FD0346002B01D000F00EF900F0C8FDCC
:1005C800224BD3F89030214A23F01803C2F8903018
:1005D8001C237B610123FB610123BB620123FB62B6
:1005E80000233B6360237B630223FB6301233B649B
:1005F80001237B642823BB640723FB6402233B6538
:1006080002237B6507F11403184601F07DFA0346BF
:10061800002B01D000F0E0F80F233B6003237B6040
:100628000023BB600023FB6000233B613B460421A1
:10063800184601F045FE0346002B01D000F0CCF827
:1006480001F080F800BF5837BD4680BD0010024059
:1006580080B500AF0B4B0C4A1A600A4B03225A6054
:10066800084B40F6FF72DA60064B40F6FF729A605C
:10067800044800F0A9FC0346002B01D000F0ACF8B8
:1006880000BF80BD280000200030004080B500AFCA
:10069800104B114A1A600F4B00225A600D4B7F22F3
:1006A8009A600C4BFF22DA600A4B00221A61094B50
:1006B80000225A61074B00229A61064B0022DA6138
:1006C800044802F021F80346002B01D000F084F81A
:1006D80000BF80BD380000200028004080B500AF72
:1006E800144B154A1A60134B4FF4E1325A60114B00
:1006F80000229A600F4B0022DA600E4B00221A612A
:100708000C4B0C225A610B4B00229A61094B0022B8
:10071800DA61084B00221A62064B00225A62054829
:1007280002F0ACF90346002B01D000F055F800BFE9
:1007380080BD00BF5C0000200044004080B588B048
:1007480000AF07F10C0300221A605A609A60DA6061
:100758001A611F4BDB6C1E4A43F00403D3641C4B25
:10076800DB6C03F00403BB60BB68194BDB6C184AF5
:1007780043F00103D364164BDB6C03F001037B6089
:100788007B68002220214FF0904000F0EBFB4FF4F3
:100798000053FB6000233B6100237B6107F10C03DE
:1007A80019460C4800F01CFA2023FB6001233B612A
:1007B80000237B610023BB6107F10C0319464FF04E
:1007C800904000F00DFA00BF2037BD4680BD00BF45
:1007D800001002400008004880B400AF72B600BFA5
:1007E800FEE7000080B483B000AF0F4B1B6E0E4ACB
:1007F80043F0010313660C4B1B6E03F001037B608F
:100808007B68094B9B6D084A43F080539365064B00
:100818009B6D03F080533B603B6800BF0C37BD46BF
:100828005DF8047B704700BF0010024080B5A4B09B
:1008380000AF786007F1080388220021184602F00B
:100848008FFE7B681B68104A934218D14FF400331F
:10085800BB604FF48073C7F88C3007F10803184663
:1008680000F086FC0346002B01D0FFF7B5FF074BCD
:10087800D3F89030054A43F40043C2F8903000BFE3
:100888009037BD4680BD00BF0028004000100240E0
:1008980080B5ACB000AF786007F19C0300221A6005
:1008A8005A609A60DA601A6107F1140388220021FD
:1008B800184602F055FE7B681B68214A93423BD1DB
:1008C80002237B6100233B6507F11403184600F0FF
:1008D8004FFC0346002B01D0FFF77EFF194B9B6DA1
:1008E800184A43F400339365164B9B6D03F40033A9
:1008F8003B613B69134BDB6C124A43F00103D36441
:10090800104BDB6C03F00103FB60FB680C23C7F89A
:100918009C300223C7F8A0300023C7F8A430032373
:10092800C7F8A8300723C7F8AC3007F19C0319466D
:100938004FF0904000F054F900BFB037BD4680BD7D
:10094800004400400010024080B400AFFEE780B4CD
:1009580000AFFEE780B400AFFEE780B400AFFEE76B
:1009680080B400AFFEE780B400AF00BFBD465DF8BD
:10097800047B704780B400AF00BFBD465DF8047BC0
:10098800704780B400AF00BFBD465DF8047B704778
:1009980080B500AF02F07CFD00BF80BD80B400AF21
:1009A800064BD3F88830054A43F47003C2F8883000
:1009B80000BFBD465DF8047B704700BF00ED00E056
:1009C800DFF834D0FFF7EAFF0C480D490D4A002341
:1009D80002E0D458C4500433C4188C42F9D30A4AEC
:1009E8000A4C002301E013600432A242FBD302F058
:1009F80093FDFFF779FDFEE700800120000000204D
:100A08000C000020E83500080C000020E40000205D
:100A1800FEE7000080B485B000AF78607B6803F023
:100A28000703FB600C4BDB68BB60BA684FF6FF033B
:100A38001340BB60FB681A02BB68134343F0BF63F3
:100A480043F40033BB60044ABB68D36000BF14376B
:100A5800BD465DF8047B704700ED00E080B400AF50
:100A6800044BDB681B0A03F007031846BD465DF814
:100A7800047B704700ED00E080B483B000AF03460C
:100A88003960FB7197F90730002B0ADB3B68DAB253
:100A98000C4997F907301201D2B20B4483F80023AE
:100AA8000AE03B68DAB20849FB7903F00F03043B1C
:100AB8001201D2B20B441A7600BF0C37BD465DF85E
:100AC800047B704700E100E000ED00E080B489B0ED
:100AD80000AFF860B9607A60FB6803F00703FB6158
:100AE800FB69C3F10703042B28BF0423BB61FB691F
:100AF8000433062B02D9FB69033B00E000237B612A
:100B08004FF0FF32BB6902FA03F3DA43BB681A40BD
:100B18007B699A404FF0FF317B6901FA03F3D943AF
:100B28007B680B40134318462437BD465DF8047BA9
:100B38007047000080B582B000AF78607B68013BE9
:100B4800B3F1807F01D301230FE00A4A7B68013BA0
:100B580053600F214FF0FF30FFF78EFF054B002247
:100B68009A60044B07221A60002318460837BD46CE
:100B780080BD00BF10E000E080B582B000AF7860B3
:100B88007868FFF747FF00BF0837BD4680BD80B5CE
:100B980086B000AF0346B9607A60FB7300237B61BF
:100BA800FFF75CFF78617A68B9687869FFF78EFFAC
:100BB800024697F90F3011461846FFF75DFF00BF50
:100BC8001837BD4680BD80B582B000AF78607868C0
:100BD800FFF7B0FF034618460837BD4680BD000042
:100BE80080B487B000AF7860396000237B617FE113
:100BF8003B681A6801217B6901FA03F31340FB6023
:100C0800FB68002B00F071813B685B6803F003030D
:100C1800012B05D03B685B6803F00303022B30D13E
:100C28007B689B683B617B695B00032202FA03F3E4
:100C3800DB433A6913403B613B68DA687B695B00D8
:100C480002FA03F33A6913433B617B683A699A6095
:100C58007B685B683B6101227B6902FA03F3DB4333
:100C68003A6913403B613B685B681B0903F001026A
:100C78007B6902FA03F33A6913433B617B683A697B
:100C88005A603B685B6803F00303032B18D17B6849
:100C9800DB6A3B6101227B6902FA03F3DB433A69B1
:100CA80013403B613B685B68DB0803F001027B692A
:100CB80002FA03F33A6913433B617B683A69DA62E3
:100CC8003B685B6803F00303032B17D07B68DB6882
:100CD8003B617B695B00032202FA03F3DB433A6959
:100CE80013403B613B689A687B695B0002FA03F337
:100CF8003A6913433B617B683A69DA603B685B6831
:100D080003F00303022B23D17B69DA087B680832DE
:100D180053F822303B617B6903F007039B000F22E5
:100D280002FA03F3DB433A6913403B613B681A69F3
:100D38007B6903F007039B0002FA03F33A69134344
:100D48003B617B69DA087B680832396943F822100D
:100D58007B681B683B617B695B00032202FA03F333
:100D6800DB433A6913403B613B685B6803F003026D
:100D78007B695B0002FA03F33A6913433B617B68C2
:100D88003A691A603B685B6803F44033002B00F053
:100D9800AC805F4B1B6E5E4A43F0010313665C4BED
:100DA8001B6E03F00103BB60BB685A4A7B699B0852
:100DB800023352F823303B617B6903F003039B0045
:100DC8000F2202FA03F3DB433A6913403B617B6865
:100DD800B3F1904F25D07B684F4A93421FD07B6870
:100DE8004E4A934219D07B684D4A934213D07B6890
:100DF8004C4A93420DD07B684B4A934207D07B689C
:100E08004A4A934201D106230CE007230AE005234E
:100E180008E0042306E0032304E0022302E00123A0
:100E280000E000237A6902F00302920093403A69D5
:100E380013433B6137497B699B0802333A6941F8A0
:100E480023203B4B9B683B61FB68DB433A691340BB
:100E58003B613B685B6803F48013002B03D03A695D
:100E6800FB6813433B61324A3B699360304BDB6854
:100E78003B61FB68DB433A6913403B613B685B6855
:100E880003F40013002B03D03A69FB6813433B615A
:100E9800274A3B69D360264B5B683B61FB68DB43B1
:100EA8003A6913403B613B685B6803F40033002BED
:100EB80003D03A69FB6813433B611D4A3B695360A1
:100EC8001B4B1B683B61FB68DB433A6913403B6182
:100ED8003B685B6803F48033002B03D03A69FB68F6
:100EE80013433B61124A3B6913607B6901337B61A1
:100EF8003B681A687B6922FA03F3002B7FF478AE0B
:100F080000BF00BF1C37BD465DF8047B704700BFBB
:100F1800001002400000014000040048000800489A
:100F2800000C004800100048001400480018004851
:100F38000004014080B485B000AF78600B467B8028
:100F48007B681A697B881340002B02D00123FB734E
:100F580001E00023FB73FB7B18461437BD465DF8A0
:100F6800047B704780B483B000AF78600B467B8009
:100F780013467B707B78002B03D07A887B689A6154
:100F880002E07A887B689A6200BF0C37BD465DF83C
:100F9800047B704780B485B000AF78600B467B80D7
:100FA8007B685B69FB607A88FB6813401A04FB68FE
:100FB800D9437B880B401A437B689A6100BF14377A
:100FC800BD465DF8047B704780B584B000AF78609B
:100FD8007B68002B01D1012341E07B681B684CF63C
:100FE800CC421A607B681B6845F255521A607B68D0
:100FF8001B687A6852685A607B681B687A689268CE
:101008009A6002F059FAF8600FE002F055FA0246C9
:10101800FB68D31A312B08D97B681B68DB6803F09F
:101028000703002B01D0032319E07B681B68DB68EA
:1010380003F00703002BE8D17B681B681A697B68FB
:10104800DB689A4205D07B681B687A68D2681A61A7
:1010580004E07B681B684AF6AA221A600023184637
:101068001037BD4680BD80B483B000AF78607B6820
:101078001B684AF6AA221A60002318460C37BD4698
:101088005DF8047B7047000080B400AF044B1B6818
:1010980003F4C0631846BD465DF8047B704700BF83
:1010A8000070004080B485B000AF78607B68B3F50D
:1010B800007F30D1234B1B6803F4C063B3F5007F76
:1010C80038D0204B1B6823F4C0631E4A43F40073D6
:1010D80013601D4B1B68322202FB03F31B4AA2FB61
:1010E80003239B0C0133FB6002E0FB68013BFB60C0
:1010F800144B5B6903F48063B3F5806F02D1FB681E
:10110800002BF2D10F4B5B6903F48063B3F5806F5A
:1011180010D103230FE00B4B1B6803F4C063B3F536
:10112800806F07D0074B1B6823F4C063054A43F45C
:1011380080631360002318461437BD465DF8047BAE
:10114800704700BF007000400000002083DE1B4392
:1011580080B400AF054B1B68044A43F480731360E6
:1011680000BFBD465DF8047B704700BF00700040BB
:1011780080B586B000AF78600023FB740023BB7491
:101188007B681B6803F40063002B41D07B685B6EAF
:10119800B3F5400F2AD0B3F5400F24D8B3F5000FAC
:1011A80008D0B3F5000F1ED8002B0AD0B3F5800F76
:1011B80010D018E0864BDB68854A43F48033D3604F
:1011C80015E07B6804330021184600F0CBFA03468B
:1011D800FB740CE07B6820330021184600F0B6FB56
:1011E8000346FB7403E00123FB7400E000BFFB7CB3
:1011F800002B0BD1764BD3F8883023F440027B6860
:101208005B6E73491343C1F8883001E0FB7CBB7403
:101218007B681B6803F48053002B41D07B689B6E6E
:10122800B3F1407F2AD0B3F1407F24D8B3F1007FD7
:1012380008D0B3F1007F1ED8002B0AD0B3F1807F0D
:1012480010D018E0624BDB68614A43F48033D36006
:1012580015E07B6804330021184600F083FA034642
:10126800FB740CE07B6820330021184600F06EFB0D
:101278000346FB7403E00123FB7400E000BFFB7C22
:10128800002B0BD1524BD3F8883023F040727B6887
:101298009B6E4F491343C1F8883001E0FB7CBB7457
:1012A8007B681B6803F40033002B00F0A080002348
:1012B8007B74474B9B6D03F08053002B01D10123B6
:1012C80000E00023002B0DD0414B9B6D404A43F0BA
:1012D800805393653E4B9B6D03F08053BB60BB68A6
:1012E80001237B743B4B1B683A4A43F480731360B9
:1012F80002F0E2F8F86009E002F0DEF80246FB6866
:10130800D31A022B02D90323FB7405E0314B1B6867
:1013180003F48073002BEFD0FB7C002B5CD12C4BAB
:10132800D3F8903003F440737B617B69002B1FD0A6
:101338007B68D3F884307A699A4219D0244BD3F861
:10134800903023F440737B61214BD3F89030204ACE
:1013580043F48033C2F890301D4BD3F890301C4AC8
:1013680023F48033C2F89030194A7B69C2F8903070
:101378007B6903F00103002B16D002F09DF8F8609A
:101388000BE002F099F80246FB68D31A41F2883262
:10139800934202D90323FB7406E00D4BD3F8903037
:1013A80003F00203002BECD0FB7C002B0CD1084B84
:1013B800D3F8903023F440727B68D3F88430044922
:1013C8001343C1F8903009E0FB7CBB7406E000BF12
:1013D8000010024000700040FB7CBB747B7C012B3A
:1013E80005D19E4B9B6D9D4A23F0805393657B6886
:1013F8001B6803F00103002B0AD0984BD3F8883000
:1014080023F003027B689B6B94491343C1F888302F
:101418007B681B6803F00203002B0AD08F4BD3F8BC
:10142800883023F00C027B68DB6B8C491343C1F8CE
:1014380088307B681B6803F00403002B0AD0874BB5
:10144800D3F8883023F030027B681B6C8349134340
:10145800C1F888307B681B6803F00803002B0AD0AA
:101468007E4BD3F8883023F0C0027B685B6C7B49E5
:101478001343C1F888307B681B6803F01003002B06
:101488000AD0764BD3F8883023F440727B689B6C83
:1014980072491343C1F888307B681B6803F0200346
:1014A800002B0AD06D4BD3F8883023F440627B6858
:1014B800DB6C6A491343C1F888307B681B6803F406
:1014C8000073002B0AD0654BD3F8883023F44022F0
:1014D8007B68DB6D61491343C1F888307B681B6802
:1014E80003F48063002B0AD05C4BD3F8883023F4D4
:1014F80040127B681B6E59491343C1F888307B68DA
:101508001B6803F04003002B0AD0544BD3F88830F3
:1015180023F440527B681B6D50491343C1F888304F
:101528007B681B6803F08003002B0AD04B4BD3F871
:10153800883023F440427B685B6D48491343C1F807
:1015480088307B681B6803F48073002B0AD0434BF8
:10155800D3F8883023F440327B689B6D3F491343AE
:10156800C1F888307B681B6803F40053002B28D02F
:101578003A4BD3F8883023F040627B68DB6E3749FA
:101588001343C1F888307B68DB6EB3F1006F06D176
:10159800324BDB68314A43F48013D36011E07B6837
:1015A800DB6EB3F1806F0CD17B68043301211846E0
:1015B80000F0D8F80346FB74FB7C002B01D0FB7CC1
:1015C800BB747B681B6803F40023002B28D0234BD3
:1015D800D3F8883023F040627B681B6F1F491343A0
:1015E800C1F888307B681B6FB3F1006F06D11B4BC5
:1015F800DB681A4A43F48013D36011E07B681B6FE1
:10160800B3F1806F0CD17B6804330121184600F0D8
:10161800A9F80346FB74FB7C002B01D0FB7CBB7450
:101628007B681B6803F48023002B2BD00B4BD3F86B
:10163800883023F040627B685B6F08491343C1F828
:1016480088307B685B6FB3F1006F09D1034BDB68AF
:10165800024A43F48013D36014E000BF0010024034
:101668007B685B6FB3F1806F0CD17B680433012119
:10167800184600F077F80346FB74FB7C002B01D07A
:10168800FB7CBB747B681B6803F48043002B2FD062
:101698002B4BD3F8883023F040527B689B6F284946
:1016A8001343C1F888307B689B6FB3F1805F0DD11D
:1016B8007B6804330221184600F054F80346FB7493
:1016C800FB7C002B14D0FB7CBB7411E07B689B6F08
:1016D800B3F1005F0CD17B6820330221184600F07B
:1016E80035F90346FB74FB7C002B01D0FB7CBB74F3
:1016F8007B681B6803F40043002B0AD0104BD3F817
:10170800883023F080427B68DB6F0D491343C1F8B2
:1017180088307B681B6803F48033002B0BD0084BA0
:10172800D3F8883023F000427B68D3F8803004492E
:101738001343C1F88830BB7C18461837BD4680BDB6
:101748000010024080B400AF054B1B68044A43F008
:101758000403136000BFBD465DF8047B704700BFFB
:101768000010024080B584B000AF78603960002373
:10177800FB73754BDB6803F00303002B18D0724B27
:10178800DB6803F003027B681B689A420DD17B6813
:101798001B68002B09D06C4BDB681B0903F007039F
:1017A8005A1C7B685B689A4247D00123FB7344E06C
:1017B8007B681B68032B18D0032B25D8012B02D07C
:1017C800022B09D020E0604B1B6803F00203002BBA
:1017D8001DD10123FB731AE05B4B1B6803F4806384
:1017E800002B16D10123FB7313E0574B1B6803F43E
:1017F8000033002B0FD1544B1B6803F48023002BBC
:1018080009D10123FB7306E00123FB7304E000BF49
:1018180002E000BF00E000BFFB7B002B0DD14A4B6C
:10182800DB6823F073027B6819687B685B68013B9F
:101838001B010B4344491343CB60FB7B002B7DD139
:10184800414B1B68404A23F08063136001F034FE6B
:10185800B86009E001F030FE0246BB68D31A022BDB
:1018680002D90323FB7305E0374B1B6803F00063C1
:10187800002BEFD1FB7B002B60D13B68002B11D1F3
:10188800314B1B6923F41F3323F440737A68926841
:1018980011027A68D268120952040A432A4913438A
:1018A8000B6127E03B68012B12D1274B1B6923F4FE
:1018B800C00323F4FE437A68926811027A681269B9
:1018C8005208013A52050A431F4913430B6111E0BC
:1018D8001D4B1B6923F0C06323F4FE437A689268AA
:1018E80011027A6852695208013A52060A431649A7
:1018F80013430B61144B1B68134A43F08063136056
:1019080001F0DAFDB86009E001F0D6FD0246BB68D7
:10191800D31A022B02D90323FB7305E00A4B1B6879
:1019280003F00063002BEFD0FB7B002B06D1064BA6
:101938001A697B689B69044913430B61FB7B184652
:101948001037BD4680BD00BF0010024080B584B08E
:1019580000AF786039600023FB736A4BDB6803F0E3
:101968000303002B18D0674BDB6803F003027B6886
:101978001B689A420DD17B681B68002B09D0614B0C
:10198800DB681B0903F007035A1C7B685B689A42F3
:1019980047D00123FB7344E07B681B68032B18D0F6
:1019A800032B25D8012B02D0022B09D020E0554B60
:1019B8001B6803F00203002B1DD10123FB731AE0FF
:1019C800504B1B6803F48063002B16D10123FB7373
:1019D80013E04C4B1B6803F40033002B0FD1494B29
:1019E8001B6803F48023002B09D10123FB7306E055
:1019F8000123FB7304E000BF02E000BF00E000BF6A
:101A0800FB7B002B0DD13F4BDB6823F073027B6817
:101A180019687B685B68013B1B010B433949134319
:101A2800CB60FB7B002B67D1364B1B68354A23F014
:101A38008053136001F040FDB86009E001F03CFDFF
:101A48000246BB68D31A022B02D90323FB7305E0B5
:101A58002C4B1B6803F00053002BEFD1FB7B002BB2
:101A68004AD13B68002B11D1264B5B6923F41F3305
:101A780023F440737A68926811027A68D26812096E
:101A880052040A431F4913434B6111E01D4B5B6924
:101A980023F0C06323F4FE437A68926811027A68DF
:101AA80012695208013A52060A43164913434B6118
:101AB800144B1B68134A43F08053136001F0FCFC7D
:101AC800B86009E001F0F8FC0246BB68D31A022BA3
:101AD80002D90323FB7305E00A4B1B6803F000538C
:101AE800002BEFD0FB7B002B06D1064B5A697B6895
:101AF8005B69044913434B61FB7B18461037BD46AD
:101B080080BD00BF0010024080B588B000AF78608B
:101B18007B68002B01D10123CAE3974B9B6803F034
:101B28000C03BB61944BDB6803F003037B617B68A8
:101B38001B6803F01003002B00F0E480BB69002B46
:101B480007D0BB690C2B40F08B807B69012B40F0E0
:101B58008780894B1B6803F00203002B05D07B6844
:101B68009B69002B01D10123A2E37B681A6A824B8F
:101B78001B6803F00803002B04D07F4B1B6803F09D
:101B8800F00305E07C4BD3F894301B0903F0F00315
:101B9800934223D27B681B6A184600F055FD034622
:101BA800002B01D0012383E3734B1B68724A43F077
:101BB80008031360704B1B6823F0F0027B681B6AF4
:101BC8006D4913430B606C4B5B6823F47F427B6861
:101BD800DB691B02684913434B6025E0664B1B68B1
:101BE800654A43F008031360634B1B6823F0F00257
:101BF8007B681B6A604913430B605F4B5B6823F487
:101C08007F427B68DB691B025B4913434B60BB69FE
:101C1800002B09D17B681B6A184600F015FD0346A6
:101C2800002B01D0012343E300F04AFC0246524B4B
:101C38009B681B0903F00F035049CB5C03F01F039B
:101C480022FA03F34E4A13604E4B1B68184601F004
:101C5800E3FB0346FB73FB7B002B52D0FB7B27E3A4
:101C68007B689B69002B32D0434B1B68424A43F088
:101C78000103136001F020FC386108E001F01CFC4E
:101C880002463B69D31A022B01D9032310E33A4BCE
:101C98001B6803F00203002BF0D0374B1B68364A51
:101CA80043F008031360344B1B6823F0F0027B6891
:101CB8001B6A314913430B602F4B5B6823F47F4247
:101CC8007B68DB691B022C4913434B601AE02A4BE3
:101CD8001B68294A23F00103136001F0EDFB38610A
:101CE80008E001F0E9FB02463B69D31A022B01D94F
:101CF8000323DDE2204B1B6803F00203002BF0D125
:101D080000E000BF7B681B6803F00103002B74D060
:101D1800BB69082B05D0BB690C2B0ED17B69032B43
:101D28000BD1154B1B6803F40033002B64D07B6880
:101D38005B68002B60D10123BAE27B685B68B3F56E
:101D4800803F06D10C4B1B680B4A43F48033136069
:101D580026E07B685B68B3F5A02F15D1064B1B689E
:101D6800054A43F480231360034B1B68024A43F47B
:101D78008033136014E000BF001002409035000863
:101D88000000002004000020A04B1B689F4A23F499
:101D9800803313609D4B1B689C4A23F48023136097
:101DA8007B685B68002B13D001F086FB386108E084
:101DB80001F082FB02463B69D31A642B01D9032345
:101DC80076E2924B1B6803F40033002BF0D014E04A
:101DD80001F072FB386108E001F06EFB02463B69D6
:101DE800D31A642B01D9032362E2884B1B6803F4DE
:101DF8000033002BF0D100E000BF7B681B6803F0C4
:101E08000203002B60D0BB69042B05D0BB690C2BE7
:101E180019D17B69022B16D17C4B1B6803F48063B4
:101E2800002B05D07B68DB68002B01D101233FE242
:101E3800764B5B6823F0F8527B681B691B06734975
:101E480013434B6040E07B68DB68002B23D06F4B6B
:101E58001B686E4A43F48073136001F02DFB3861F0
:101E680008E001F029FB02463B69D31A022B01D98D
:101E780003231DE2654B1B6803F48063002BF0D03D
:101E8800624B5B6823F0F8527B681B691B065F494D
:101E980013434B6018E05D4B1B685C4A23F4807366
:101EA800136001F009FB386108E001F005FB024608
:101EB8003B69D31A022B01D90323F9E1534B1B6861
:101EC80003F48063002BF0D17B681B6803F00803E0
:101ED800002B3CD07B685B69002B1CD04B4BD3F8A4
:101EE80094304A4A43F00103C2F8943001F0E4FA0E
:101EF800386108E001F0E0FA02463B69D31A022B88
:101F080001D90323D4E1414BD3F8943003F0020301
:101F1800002BEFD01BE03D4BD3F894303B4A23F025
:101F28000103C2F8943001F0C7FA386108E001F003
:101F3800C3FA02463B69D31A022B01D90323B7E13E
:101F4800324BD3F8943003F00203002BEFD17B68B7
:101F58001B6803F00403002B00F0A6800023FB7726
:101F68002A4B9B6D03F08053002B0DD1274B9B6DA3
:101F7800264A43F080539365244B9B6D03F08053AE
:101F8800BB60BB680123FB77214B1B6803F480739C
:101F9800002B18D11E4B1B681D4A43F48073136035
:101FA80001F08AFA386108E001F086FA02463B69D6
:101FB800D31A022B01D903237AE1154B1B6803F4CA
:101FC8008073002BF0D07B689B68012B08D10F4BE6
:101FD800D3F890300D4A43F00103C2F8903029E05D
:101FE8007B689B68052B15D1084BD3F89030074ABE
:101FF80043F00403C2F89030044BD3F89030034AFE
:1020080043F00103C2F8903014E000BF0010024012
:10201800007000409C4BD3F890309B4A23F001039A
:10202800C2F89030984BD3F89030974A23F00403C5
:10203800C2F890307B689B68002B16D001F03CFA00
:1020480038610AE001F038FA02463B69D31A41F2D6
:102058008832934201D903232AE18B4BD3F890307D
:1020680003F00203002BEDD015E001F025FA3861EA
:102078000AE001F021FA02463B69D31A41F288329C
:10208800934201D9032313E17F4BD3F8903003F037
:102098000203002BEDD1FB7F012B05D17A4B9B6D01
:1020A800794A23F0805393657B689B6A002B00F084
:1020B800FE807B689B6A022B40F0D080724BDB6805
:1020C8007B617B6903F003027B68DB6A9A4230D14B
:1020D8007B6903F070027B681B6B013B1B019A4212
:1020E80027D17B6903F4FE427B685B6B1B029A4233
:1020F8001FD17B6903F400337A68926B072A14BFF7
:1021080001220022D2B2934213D17B6903F4C002A8
:102118007B68DB6B5B08013B5B059A4209D17B69F5
:1021280003F0C0627B681B6C5B08013B5B069A424C
:102138006ED0BB690C2B69D0534B1B6803F08063CE
:10214800002B05D1504B1B6803F08053002B01D0A6
:102158000123ADE04C4B1B684B4A23F0807313609E
:1021680001F0AAF9386108E001F0A6F902463B69D6
:10217800D31A022B01D903239AE0434B1B6803F0BF
:102188000073002BF0D1404BDA68404B13407A685B
:10219800D16A7A68126B013A120111437A68526B5C
:1021A800120211437A68D26B5208013A5205114360
:1021B8007A68126C5208013A520611437A68926B97
:1021C800120952040A4330491343CB602E4B1B6853
:1021D8002D4A43F0807313602B4BDB682A4A43F087
:1021E8008073D36001F068F9386108E001F064F9A0
:1021F80002463B69D31A022B01D9032358E0224B2C
:102208001B6803F00073002BF0D050E001234FE06F
:102218001D4B1B6803F00073002B48D11A4B1B6839
:10222800194A43F080731360174BDB68164A43F072
:102238008073D36001F040F9386108E001F03CF99F
:1022480002463B69D31A022B01D9032330E00E4B17
:102258001B6803F00073002BF0D028E0BB690C2B3F
:1022680023D0094B1B68084A23F08073136001F0E0
:1022780023F938610CE001F01FF902463B69D31AD3
:10228800022B05D9032313E0001002408C809DF92E
:10229800094B1B6803F00073002BECD1064BDA687E
:1022A8000549064B1340CB6001E0012300E0002301
:1022B80018462037BD4680BD00100240FCFFEEFEE8
:1022C80080B584B000AF786039607B68002B01D19D
:1022D8000123E7E0754B1B6803F007033A689A424D
:1022E80010D9724B1B6823F0070270493B681343EF
:1022F8000B606E4B1B6803F007033A689A4201D0E3
:102308000123CFE07B681B6803F00203002B10D089
:102318007B689A68664B9B6803F0F0039A4208D979
:10232800634B9B6823F0F0027B689B68604913430A
:102338008B607B681B6803F00103002B4CD07B6823
:102348005B68032B07D15A4B1B6803F00073002B03
:1023580021D10123A6E07B685B68022B07D1544B8F
:102368001B6803F40033002B15D101239AE07B6826
:102378005B68002B07D14E4B1B6803F00203002B50
:1023880009D101238EE04A4B1B6803F48063002BBC
:1023980001D1012386E0464B9B6823F003027B684A
:1023A8005B68434913438B6001F086F8F8600AE0E4
:1023B80001F082F80246FB68D31A41F28832934250
:1023C80001D903236EE03A4B9B6803F00C027B684B
:1023D8005B689B009A42EBD17B681B6803F00203A1
:1023E800002B10D07B689A68314B9B6803F0F00390
:1023F8009A4208D22E4B9B6823F0F0027B689B68B8
:102408002B4913438B60294B1B6803F007033A6879
:102418009A4210D2254B1B6823F0070223493B68D8
:1024280013430B60214B1B6803F007033A689A4279
:1024380001D0012336E07B681B6803F00403002BFE
:1024480008D01B4B9B6823F4E0627B68DB68184963
:1024580013438B607B681B6803F00803002B09D0CB
:10246800134B9B6823F460527B681B69DB0010499F
:1024780013438B6000F024F802460D4B9B681B0940
:1024880003F00F030B49CB5C03F01F0322FA03F39D
:10249800094A1360094B1B68184600F0BDFF034644
:1024A800FB72FB7A18461037BD4680BD00200240FB
:1024B80000100240903500080000002004000020B1
:1024C80080B489B000AF0023FB610023BB613E4BA1
:1024D8009B6803F00C033B613B4BDB6803F0030391
:1024E800FB603B69002B05D03B690C2B21D1FB68B5
:1024F800012B1ED1344B1B6803F00803002B07D1B6
:10250800314BD3F894301B0A03F00F03FB6105E04D
:102518002D4B1B681B0903F00F03FB612B4AFB695A
:1025280052F82330FB613B69002B0DD1FB69BB617D
:102538000AE03B69042B02D1254BBB6104E03B69EF
:10254800082B01D1234BBB613B690C2B34D11E4BAB
:10255800DB6803F00303BB60BB68022B03D0BB68D6
:10256800032B03D005E01A4B7B6105E0194B7B6117
:1025780002E0FB697B6100BF134BDB681B0903F0BA
:10258800070301337B60104BDB681B0A03F07F03F2
:102598007A6903FB02F27B68B2FBF3F37B610A4BB7
:1025A800DB685B0E03F0030301335B003B607A6971
:1025B8003B68B2FBF3F3BB61BB6918462437BD46E1
:1025C8005DF8047B704700BF00100240A835000882
:1025D8000024F40000127A0080B400AF034B1B689B
:1025E8001846BD465DF8047B704700BF0000002018
:1025F80080B500AFFFF7F0FF0246064B9B681B0A49
:1026080003F007030449CB5C03F01F0322FA03F32A
:10261800184680BD00100240A035000880B500AF04
:10262800FFF7DAFF0246064B9B68DB0A03F0070355
:102638000449CB5C03F01F0322FA03F3184680BD5C
:1026480000100240A035000880B586B000AF786061
:1026580000233B612A4B9B6D03F08053002B03D072
:10266800FEF712FD786114E0254B9B6D244A43F078
:1026780080539365224B9B6D03F08053FB60FB688E
:10268800FEF702FD78611E4B9B6D1D4A23F08053B7
:1026980093657B69B3F5007F0BD17B68802B19D9D3
:1026A8007B68A02B02D902233B6113E001233B6125
:1026B80010E07B68802B02D903233B610AE07B682A
:1026C800802B02D102233B6104E07B68702B01D18F
:1026D80001233B610B4B1B6823F0070209493B6947
:1026E80013430B60074B1B6803F007033A699A42D0
:1026F80001D0012300E0002318461837BD4680BDED
:10270800001002400020024080B584B000AF78601D
:102718000123FB737B68002B6CD07B6893F8213016
:10272800DBB2002B06D17B68002283F82020786872
:10273800FEF77CF87B68022283F821207B681B68FF
:10274800CA225A627B681B6853225A62786800F072
:1027580003F90346FB73FB7B002B4BD17B681B689B
:102768009B687A68126823F4E00323F040039360BF
:102778007B681B6899687B685A687B681B691A4381
:102788007B689B691A437B681B680A439A607B686D
:102798001B687A68D2681A617B681B6819697B684C
:1027A8009B681A047B681B680A431A61786800F002
:1027B80007F90346FB73FB7B002B1BD17B681B6867
:1027C800DA6C7B681B6822F00302DA647B681B689A
:1027D800D96C7B68DA697B685B691A437B681B681C
:1027E8000A43DA647B681B68FF225A627B6801220D
:1027F80083F82120FB7B18461037BD4680BD90B575
:1028080087B000AFF860B9607A60FB6893F8203051
:10281800012B01D1022375E0FB68012283F82020F7
:10282800FB68022283F821207B68002B0ED1BB684D
:102838005B7803F01003002B08D0BB685B7823F0AB
:102848001003DBB20A33DAB2BB685A707B68002B1C
:102858001CD1BB68DB78184600F0F0F803461C046E
:10286800BB685B78184600F0E9F803461B021C4376
:10287800BB689B78184600F0E1F8034644EA030277
:10288800BB681B785B0313437B610EE0BB68DB7896
:102898001A04BB685B781B021343BA6892781A4320
:1028A800BB681B785B0313437B61FB681B68CA2208
:1028B8005A62FB681B6853225A62F86800F04CF8A9
:1028C8000346FB74FB7C002B0CD1FB681A687B6900
:1028D80023F07F4323F0C0035360F86800F070F8DA
:1028E8000346FB74FB681B68FF225A62FB7C002BC3
:1028F80003D1FB68012283F82120FB68002283F8BA
:102908002020FB7C18461C37BD4690BD80B584B09E
:1029180000AF78607B681B68DA687B681B6822F008
:10292800A002DA6000F0C8FDF86009E000F0C4FD1C
:102938000246FB68D31AB3F57A7F01D9032307E06F
:102948007B681B68DB6803F02003002BEED00023B4
:1029580018461037BD4680BD80B584B000AF78609A
:102968000023FB737B681B68DB6803F04003002BC4
:1029780020D17B681B684FF0FF32DA6000F09CFDC5
:10298800B8600DE000F098FD0246BB68D31AB3F5B5
:102998007A7F05D90323FB737B68032283F8212000
:1029A8007B681B68DB6803F04003002B02D1FB7BCC
:1029B800032BE7D1FB7B18461037BD4680BD0000CE
:1029C80080B584B000AF78600023FB731A4BDB68D6
:1029D800194A23F08003D360174B9B6803F0200348
:1029E800002B0CD17868FFF791FF0346002B1ED00F
:1029F8007B68032283F821200323FB7317E00E4B27
:102A08009B680D4A23F0200393607868FFF77EFFE8
:102A18000346002B05D07B68032283F8212003237B
:102A2800FB73054B9B68044A43F020039360FB7BD0
:102A380018461037BD4680BD0028004080B485B0D8
:102A480000AF0346FB710023FB60FB79FB7205E0D6
:102A5800FB680133FB60FB7A0A3BFB72FB7A092BAC
:102A6800F6D8FB68DBB21B01DAB2FB7A1343DBB2A0
:102A780018461437BD465DF8047B704780B582B0B0
:102A880000AF78607B68002B01D1012340E07B68B0
:102A98009B6F002B06D17B68002283F8742078682E
:102AA800FDF7F6FE7B6824229A677B681B681A6824
:102AB8007B681B6822F001021A60786800F02CF825
:102AC8000346012B01D1012322E07B685B6A002BBE
:102AD80002D0786800F0D8FA7B681B685A687B686F
:102AE8001B6822F490425A607B681B689A687B686E
:102AF8001B6822F02A029A607B681B681A687B6848
:102B08001B6842F001021A60786800F05FFB034618
:102B180018460837BD4680BD2DE9B04F8AB000AFD2
:102B2800F860002387F82230FB689A68FB681B6905
:102B38001A43FB685B691A43FB68DB6913437B62D2
:102B4800FB681B681A68A44B1340FA681268796A14
:102B58000B431360FB681B685B6823F44051FB68F8
:102B6800DA68FB681B680A435A60FB689B697B62EA
:102B7800FB681B68994A934204D0FB681B6A7A6A0F
:102B880013437B62FB681B689B6823F43061FB6816
:102B98001B687A6A0A439A60FB681B68904A9342EA
:102BA80026D1904BD3F8883003F00303032B1BD8AE
:102BB80001A252F823F000BFD12B0008E12B000836
:102BC800D92B0008E92B0008012387F8233016E1E8
:102BD800022387F8233012E1042387F823300EE11B
:102BE800082387F823300AE1102387F8233006E109
:102BF800FB681B687C4A934238D17A4BD3F88830FB
:102C080003F00C030C2B2DD801A252F823F000BFBF
:102C18004D2C00086D2C00086D2C00086D2C000848
:102C28005D2C00086D2C00086D2C00086D2C000828
:102C3800552C00086D2C00086D2C00086D2C000820
:102C4800652C0008002387F82330D8E0022387F892
:102C58002330D4E0042387F82330D0E0082387F812
:102C68002330CCE0102387F82330C8E0FB681B68CA
:102C78005E4A934225D15B4BD3F8883003F030038A
:102C8800302B16D0302B18D8202B0AD0202B14D854
:102C9800002B02D0102B08D00FE0002387F8233038
:102CA800ADE0022387F82330A9E0042387F8233016
:102CB800A5E0082387F82330A1E0102387F8233004
:102CC8009DE0FB681B684A4A934225D1454BD3F8DF
:102CD800883003F0C003C02B16D0C02B18D8802B27
:102CE8000AD0802B14D8002B02D0402B08D00FE03C
:102CF800002387F8233082E0022387F823307EE020
:102D0800042387F823307AE0082387F8233076E015
:102D1800102387F8233072E0FB681B68354A93421A
:102D28002AD1304BD3F8883003F44073B3F5407F91
:102D38001AD0B3F5407F1BD8B3F5007F0CD0B3F59C
:102D4800007F15D8002B03D0B3F5807F08D00FE0A3
:102D5800002387F8233052E0022387F823304EE01F
:102D6800042387F823304AE0082387F8233046E015
:102D7800102387F8233042E0FB681B68174A934208
:102D88003AD1184BD3F8883003F44063B3F5406F59
:102D98001AD0B3F5406F1BD8B3F5006F0CD0B3F55C
:102DA800006F15D8002B03D0B3F5806F08D00FE063
:102DB800002387F8233022E0022387F823301EE01F
:102DC800042387F823301AE0082387F8233016E015
:102DD800102387F8233012E0F369FFEF00800040EA
:102DE8000038014000100240004400400048004004
:102DF800004C004000500040102387F82330FB6847
:102E08001B689F4A93427AD197F82330082B24D81D
:102E180001A252F823F000BF452E0008632E0008D7
:102E28004D2E0008632E0008532E0008632E00085C
:102E3800632E0008632E00085B2E0008FFF7D8FBFE
:102E4800F86110E08F4BFB610DE0FFF739FBF8618B
:102E580009E04FF40043FB6105E00023FB61012317
:102E680087F8223000BFFB69002B00F0FB80FB686D
:102E78005A6813465B001344FA699A4205D3FB6803
:102E88005B681B03FA699A4203D9012387F8223049
:102E9800E8E0FB6900221C4615464FF000024FF09F
:102EA80000032B0243EA14632202F96849684908BF
:102EB80000208846814612EB080A43EB090BFB68A1
:102EC8005B6800223B607A60D7E900235046594688
:102ED800FDF776F902460B461346BB61BB69B3F5AD
:102EE800407F08D3BB69B3F5801F04D2FB681B6819
:102EF800BA69DA60B6E0012387F82230B2E0FB68ED
:102F0800DB69B3F5004F5ED197F82330082B28D83A
:102F180001A252F823F000BF452F00084D2F0008EA
:102F2800552F00086B2F00085B2F00086B2F000837
:102F38006B2F00086B2F0008632F0008FFF758FB62
:102F4800F86114E0FFF76AFBF86110E04D4BFB6194
:102F58000DE0FFF7B5FAF86109E04FF40043FB61B3
:102F680005E00023FB61012387F8223000BFFB69DD
:102F7800002B77D0FB695A00FB685B685B081A4432
:102F8800FB685B68B2FBF3F3BB61BB690F2B16D917
:102F9800BB69B3F5803F12D2BB699BB223F00F0324
:102FA800FB82BB695B089BB203F007039AB2FB8AFA
:102FB8001343FB82FB681B68FA8ADA6052E001233C
:102FC80087F822304EE097F82330082B27D801A243
:102FD80052F823F0013000080930000811300008C9
:102FE800273000081730000827300008273000086D
:102FF800273000081F300008FFF7FAFAF86114E0DC
:10300800FFF70CFBF86110E01E4BFB610DE0FFF7CA
:1030180057FAF86109E04FF40043FB6105E000232B
:10302800FB61012387F8223000BFFB69002B19D010
:10303800FB685B685A08FB691A44FB685B68B2FB6B
:10304800F3F3BB61BB690F2B09D9BB69B3F5803FAB
:1030580005D2BB699AB2FB681B68DA6002E00123FB
:1030680087F82230FB6800225A66FB6800229A66BD
:1030780097F8223018462837BD46BDE8B08F00BF04
:10308800008000400024F40080B483B000AF786072
:103098007B685B6A03F00103002B0AD07B681B681E
:1030A8005B6823F400317B689A6A7B681B680A4373
:1030B8005A607B685B6A03F00203002B0AD07B68C6
:1030C8001B685B6823F480317B68DA6A7B681B685D
:1030D8000A435A607B685B6A03F00403002B0AD03A
:1030E8007B681B685B6823F480217B681A6B7B68AC
:1030F8001B680A435A607B685B6A03F00803002B6D
:103108000AD07B681B685B6823F400417B685A6BB4
:103118007B681B680A435A607B685B6A03F010038C
:10312800002B0AD07B681B689B6823F480517B685E
:103138009A6B7B681B680A439A607B685B6A03F03A
:103148002003002B0AD07B681B689B6823F400517E
:103158007B68DA6B7B681B680A439A607B685B6AEA
:1031680003F04003002B1AD07B681B685B6823F4CC
:1031780080117B681A6C7B681B680A435A607B68FD
:103188001B6CB3F5801F0AD17B681B685B6823F44E
:10319800C0017B685A6C7B681B680A435A607B686D
:1031A8005B6A03F08003002B0AD07B681B685B68AE
:1031B80023F400217B689A6C7B681B680A435A6079
:1031C80000BF0C37BD465DF8047B704780B586B0FC
:1031D80002AF78607B680022C3F8802000F06CF9A9
:1031E800F8607B681B681B6803F00803082B0ED186
:1031F8006FF07E430093FB6800224FF4001178685B
:1032080000F02DF80346002B01D0032323E07B6850
:103218001B681B6803F00403042B0ED16FF07E4378
:103228000093FB6800224FF48001786800F017F8DB
:103238000346002B01D003230DE07B6820229A6708
:103248007B682022DA677B6800221A667B68002286
:1032580083F87420002318461037BD4680BD80B51A
:103268009CB000AFF860B9603B601346FB71A5E005
:10327800BB6FB3F1FF3F00F0A18000F01DF90246DB
:103288003B68D31ABA6F9A4202D3BB6F002B3ED168
:10329800FB681B683B653B6D53E8003FFB64FB6CB8
:1032A80023F4D0737B66FB681B681A467B6EFB654C
:1032B800BA65B96DFA6D41E800237B657B6D002B1B
:1032C800E6D1FB681B680833FB63FB6B53E8003FE0
:1032D800BB63BB6B23F001033B66FB681B680833C9
:1032E8003A6EBA647B64796CBA6C41E800233B643B
:1032F8003B6C002BE5D1FB6820229A67FB682022F3
:10330800DA67FB68002283F87420032367E0FB6810
:103318001B681B6803F00403002B4FD0FB681B6875
:10332800DB6903F40063B3F5006F47D1FB681B68E2
:103338004FF400621A62FB681B68BB62BB6A53E801
:10334800003F7B627B6A23F4D073FB66FB681B68D3
:103358001A46FB6E7B633A63396B7A6B41E800234C
:10336800FB62FB6A002BE6D1FB681B6808337B61B4
:103378007B6953E8003F3B613B6923F00103BB666F
:10338800FB681B680833BA6E3A62FB61F9693A6AEE
:1033980041E80023BB61BB69002BE5D1FB68202213
:1033A8009A67FB682022DA67FB682022C3F880202E
:1033B800FB68002283F87420032310E0FB681B6875
:1033C800DA69BB681340BA689A420CBF012300232C
:1033D800DBB21A46FB799A423FF44AAF00231846FB
:1033E8007037BD4680BD80B582B000AF0023FB7149
:1033F8000320FDF7C1FB0F2000F00EF80346002B59
:1034080002D00123FB7101E0FDF7ECF9FB791846C6
:103418000837BD4680BD000080B584B000AF786035
:103428000023FB73174B1B78002B23D0164B1A680D
:10343800144B1B7819464FF47A73B3FBF1F3B2FBC4
:10344800F3F31846FDF7BFFB0346002B0FD17B684B
:103458000F2B09D8002279684FF0FF30FDF797FB52
:103468000A4A7B68136007E00123FB7304E0012329
:10347800FB7301E00123FB73FB7B18461037BD4645
:1034880080BD00BF080000200000002004000020CC
:1034980080B400AF064B1B781A46064B1B681344D2
:1034A800044A136000BFBD465DF8047B704700BF47
:1034B80008000020E000002080B400AF034B1B6828
:1034C8001846BD465DF8047B704700BFE000002049
:1034D80080B584B000AF7860FFF7EEFFB8607B6816
:1034E800FB60FB68B3F1FF3F05D00A4B1B781A4617
:1034F800FB681344FB6000BFFFF7DEFF0246BB68B2
:10350800D31AFA689A42F7D800BF00BF1037BD46F1
:1035180080BD00BF0800002070B50D4D0D4C641B28
:10352800A4100026A64209D10B4D0C4C00F020F83F
:10353800641BA4100026A64205D170BD55F8043BB3
:1035480098470136EEE755F8043B98470136F2E70D
:10355800E0350008E0350008E0350008E4350008EB
:1035680002440346934200D1704703F8011BF9E770
:10357800F8B500BFF8BC08BC9E467047F8B500BF58
:08358800F8BC08BC9E46704728
:103590000000000000000000010203040607080903
:1035A0000000000001020304A0860100400D03009A
:1035B000801A060000350C0040420F0080841E0077
:1035C00000093D0000127A000024F40000366E016C
:0835D0000048E801006CDC0278
:0835D80020CCFF7F0100000080
:0435E000AD01000831
:0435E4008901000851
:0C35E80000093D00100000000100000080
:04000005080009C91D
:00000001FF
