:020000040800F2
:1000000000800120050400088D0300089303000808
:10001000990300089F030008A503000800000000E2
:10002000000000000000000000000000AB0300081A
:10003000B903000800000000C7030008D50300084A
:10004000550400085504000855040008550400082C
:10005000550400085504000855040008550400081C
:10006000550400085504000855040008550400080C
:1000700055040008550400085504000855040008FC
:1000800055040008550400085504000855040008EC
:1000900055040008550400085504000855040008DC
:1000A00055040008550400085504000855040008CC
:1000B00055040008550400085504000855040008BC
:1000C00055040008550400085504000855040008AC
:1000D000550400085504000855040008550400089C
:1000E000550400085504000855040008550400088C
:1000F000550400085504000855040008550400087C
:10010000550400085504000855040008550400086B
:10011000550400085504000855040008550400085B
:10012000550400085504000855040008550400084B
:10013000550400085504000855040008550400083B
:10014000550400085504000855040008550400082B
:10015000550400085504000855040008550400081B
:10016000550400085504000855040008550400080B
:10017000550400085504000855040008000000005C
:080180005504000855040008B5
:1001880010B5054C237833B9044B13B10448AFF3C9
:1001980000800123237010BD0C0000200000000027
:1001A8008817000808B5034B1BB103490348AFF390
:1001B800008008BD0000000010000020881700081B
:1001C80080B584B000AF78600B46FB70FB78FB739A
:1001D8007B68002B0FDB7B68092B0CDC084A7B68EB
:1001E80052F83300064A7B68DB0013449B88FA7B8D
:1001F800194600F0BDFB00BF1037BD4680BD00BFEB
:10020800A017000880B582B000AF01F0F5F900F042
:1002180017F800F05BF800237B600DE00121786897
:10022800FFF7CEFF642001F05BFA00217868FFF742
:10023800C7FF7B6801337B607B68092BEEDDEAE74B
:1002480080B596B000AF07F1140344220021184688
:1002580001F08EFA3B4600221A605A609A60DA6012
:100268001A614FF4007000F0A9FB0346002B01D07F
:1002780000F05EF810237B610123FB6200233B63DF
:1002880060237B630023FB6307F11403184600F027
:10029800EBFB0346002B01D000F04AF80F233B602C
:1002A80000237B600023BB600023FB6000233B61CD
:1002B8003B460021184600F0B3FF0346002B01D04F
:1002C80000F036F800BF5837BD4680BD80B586B00F
:1002D80000AF3B1D00221A605A609A60DA601A610A
:1002E800114BDB6C104A43F00203D3640E4BDB6CFA
:1002F80003F002033B603B6800224FF6E0710B48B5
:1003080000F036FB4FF6E0737B600123BB600023EF
:10031800FB6000233B613B1D1946044800F07EF951
:1003280000BF1837BD4680BD0010024000040048D9
:1003380080B400AF72B600BFFEE7000080B483B09F
:1003480000AF0F4B1B6E0E4A43F0010313660C4BB4
:100358001B6E03F001037B607B68094B9B6D084AA9
:1003680043F080539365064B9B6D03F080533B60CD
:100378003B6800BF0C37BD465DF8047B704700BF83
:100388000010024080B400AFFEE780B400AFFEE783
:1003980080B400AFFEE780B400AFFEE780B400AFE2
:1003A800FEE780B400AF00BFBD465DF8047B704730
:1003B80080B400AF00BFBD465DF8047B704780B4D1
:1003C80000AF00BFBD465DF8047B704780B500AF45
:1003D80001F066F900BF80BD80B400AF064BD3F8CA
:1003E8008830054A43F47003C2F8883000BFBD4620
:1003F8005DF8047B704700BF00ED00E0DFF834D003
:10040800FFF7EAFF0C480D490D4A002302E0D458D3
:10041800C4500433C4188C42F9D30A4A0A4C002346
:1004280001E013600432A242FBD301F07DF9FFF72B
:10043800E9FEFEE700800120000000200C000020FB
:10044800381800080C0000202C000020FEE70000EF
:1004580080B485B000AF78607B6803F00703FB6069
:100468000C4BDB68BB60BA684FF6FF031340BB60F8
:10047800FB681A02BB68134343F0BF6343F40033BD
:10048800BB60044ABB68D36000BF1437BD465DF843
:10049800047B704700ED00E080B400AF044BDB68DC
:1004A8001B0A03F007031846BD465DF8047B704736
:1004B80000ED00E080B483B000AF03463960FB7103
:1004C80097F90730002B0ADB3B68DAB20C4997F939
:1004D80007301201D2B20B4483F800230AE03B68CC
:1004E800DAB20849FB7903F00F03043B1201D2B2D8
:1004F8000B441A7600BF0C37BD465DF8047B704785
:1005080000E100E000ED00E080B489B000AFF860E1
:10051800B9607A60FB6803F00703FB61FB69C3F10C
:100528000703042B28BF0423BB61FB690433062B94
:1005380002D9FB69033B00E000237B614FF0FF32E7
:10054800BB6902FA03F3DA43BB681A407B699A4035
:100558004FF0FF317B6901FA03F3D9437B680B4005
:10056800134318462437BD465DF8047B70470000E6
:1005780080B582B000AF78607B68013BB3F1807FC3
:1005880001D301230FE00A4A7B68013B53600F2126
:100598004FF0FF30FFF78EFF054B00229A60044BA7
:1005A80007221A60002318460837BD4680BD00BFE1
:1005B80010E000E080B582B000AF78607868FFF79F
:1005C80047FF00BF0837BD4680BD80B586B000AF85
:1005D8000346B9607A60FB7300237B61FFF75CFF19
:1005E80078617A68B9687869FFF78EFF024697F9EB
:1005F8000F3011461846FFF75DFF00BF1837BD469C
:1006080080BD80B582B000AF78607868FFF7B0FF32
:10061800034618460837BD4680BD000080B487B041
:1006280000AF7860396000237B617FE13B681A681E
:1006380001217B6901FA03F31340FB60FB68002B7F
:1006480000F071813B685B6803F00303012B05D060
:100658003B685B6803F00303022B30D17B689B681F
:100668003B617B695B00032202FA03F3DB433A69CF
:1006780013403B613B68DA687B695B0002FA03F36D
:100688003A6913433B617B683A699A607B685B68A7
:100698003B6101227B6902FA03F3DB433A691340A9
:1006A8003B613B685B681B0903F001027B6902FA46
:1006B80003F33A6913433B617B683A695A603B68C4
:1006C8005B6803F00303032B18D17B68DB6A3B618B
:1006D80001227B6902FA03F3DB433A6913403B6169
:1006E8003B685B68DB0803F001027B6902FA03F3ED
:1006F8003A6913433B617B683A69DA623B685B6835
:1007080003F00303032B17D07B68DB683B617B692D
:100718005B00032202FA03F3DB433A6913403B61AF
:100728003B689A687B695B0002FA03F33A691343F2
:100738003B617B683A69DA603B685B6803F00303F6
:10074800022B23D17B69DA087B68083253F8223000
:100758003B617B6903F007039B000F2202FA03F356
:10076800DB433A6913403B613B681A697B6903F0D4
:1007780007039B0002FA03F33A6913433B617B6961
:10078800DA087B680832396943F822107B681B68ED
:100798003B617B695B00032202FA03F3DB433A699E
:1007A80013403B613B685B6803F003027B695B00B5
:1007B80002FA03F33A6913433B617B683A691A60AA
:1007C8003B685B6803F44033002B00F0AC805F4B60
:1007D8001B6E5E4A43F0010313665C4B1B6E03F00D
:1007E8000103BB60BB685A4A7B699B08023352F815
:1007F80023303B617B6903F003039B000F2202FA5D
:1008080003F3DB433A6913403B617B68B3F1904FD4
:1008180025D07B684F4A93421FD07B684E4A93424B
:1008280019D07B684D4A934213D07B684C4A934257
:100838000DD07B684B4A934207D07B684A4A934263
:1008480001D106230CE007230AE0052308E004236E
:1008580006E0032304E0022302E0012300E0002372
:100868007A6902F00302920093403A6913433B61AC
:1008780037497B699B0802333A6941F823203B4B8F
:100888009B683B61FB68DB433A6913403B613B680B
:100898005B6803F48013002B03D03A69FB681343A9
:1008A8003B61324A3B699360304BDB683B61FB68D4
:1008B800DB433A6913403B613B685B6803F4001310
:1008C800002B03D03A69FB6813433B61274A3B6915
:1008D800D360264B5B683B61FB68DB433A69134096
:1008E8003B613B685B6803F40033002B03D03A6933
:1008F800FB6813433B611D4A3B6953601B4B1B68F4
:100908003B61FB68DB433A6913403B613B685B68CA
:1009180003F48033002B03D03A69FB6813433B612F
:10092800124A3B6913607B6901337B613B681A6833
:100938007B6922FA03F3002B7FF478AE00BF00BF77
:100948001C37BD465DF8047B704700BF00100240AD
:10095800000001400004004800080048000C00485E
:100968000010004800140048001800480004014026
:1009780080B483B000AF78600B467B8013467B70F1
:100988007B78002B03D07A887B689A6102E07A88AA
:100998007B689A6200BF0C37BD465DF8047B7047E0
:1009A80080B400AF044B1B6803F4C0631846BD460F
:1009B8005DF8047B704700BF0070004080B485B0CC
:1009C80000AF78607B68B3F5007F30D1234B1B689C
:1009D80003F4C063B3F5007F38D0204B1B6823F4C1
:1009E800C0631E4A43F4007313601D4B1B68322218
:1009F80002FB03F31B4AA2FB03239B0C0133FB609E
:100A080002E0FB68013BFB60144B5B6903F4806305
:100A1800B3F5806F02D1FB68002BF2D10F4B5B69F5
:100A280003F48063B3F5806F10D103230FE00B4B01
:100A38001B6803F4C063B3F5806F07D0074B1B68CE
:100A480023F4C063054A43F4806313600023184607
:100A58001437BD465DF8047B704700BF0070004046
:100A68000000002083DE1B4380B588B000AF7860AB
:100A78007B68002B01D10123CAE3974B9B6803F0E5
:100A88000C03BB61944BDB6803F003037B617B6859
:100A98001B6803F01003002B00F0E480BB69002BF7
:100AA80007D0BB690C2B40F08B807B69012B40F091
:100AB8008780894B1B6803F00203002B05D07B68F5
:100AC8009B69002B01D10123A2E37B681A6A824B40
:100AD8001B6803F00803002B04D07F4B1B6803F04E
:100AE800F00305E07C4BD3F894301B0903F0F003C6
:100AF800934223D27B681B6A184600F01DFD03460B
:100B0800002B01D0012383E3734B1B68724A43F027
:100B180008031360704B1B6823F0F0027B681B6AA4
:100B28006D4913430B606C4B5B6823F47F427B6811
:100B3800DB691B02684913434B6025E0664B1B6861
:100B4800654A43F008031360634B1B6823F0F00207
:100B58007B681B6A604913430B605F4B5B6823F437
:100B68007F427B68DB691B025B4913434B60BB69AF
:100B7800002B09D17B681B6A184600F0DDFC034690
:100B8800002B01D0012343E300F04AFC0246524BFC
:100B98009B681B0903F00F035049CB5C03F01F034C
:100BA80022FA03F34E4A13604E4B1B68184600F0B6
:100BB8003BFD0346FB73FB7B002B52D0FB7B27E3FB
:100BC8007B689B69002B32D0434B1B68424A43F039
:100BD8000103136000F078FD386108E000F074FD4F
:100BE80002463B69D31A022B01D9032310E33A4B7F
:100BF8001B6803F00203002BF0D0374B1B68364A02
:100C080043F008031360344B1B6823F0F0027B6841
:100C18001B6A314913430B602F4B5B6823F47F42F7
:100C28007B68DB691B022C4913434B601AE02A4B93
:100C38001B68294A23F00103136000F045FD386161
:100C480008E000F041FD02463B69D31A022B01D9A6
:100C58000323DDE2204B1B6803F00203002BF0D1D5
:100C680000E000BF7B681B6803F00103002B74D011
:100C7800BB69082B05D0BB690C2B0ED17B69032BF4
:100C88000BD1154B1B6803F40033002B64D07B6831
:100C98005B68002B60D10123BAE27B685B68B3F51F
:100CA800803F06D10C4B1B680B4A43F4803313601A
:100CB80026E07B685B68B3F5A02F15D1064B1B684F
:100CC800054A43F480231360034B1B68024A43F42C
:100CD8008033136014E000BF00100240F0170008D2
:100CE8000000002004000020A04B1B689F4A23F44A
:100CF800803313609D4B1B689C4A23F48023136048
:100D08007B685B68002B13D000F0DEFC386108E0DC
:100D180000F0DAFC02463B69D31A642B01D903239D
:100D280076E2924B1B6803F40033002BF0D014E0FA
:100D380000F0CAFC386108E000F0C6FC02463B69D6
:100D4800D31A642B01D9032362E2884B1B6803F48E
:100D58000033002BF0D100E000BF7B681B6803F074
:100D68000203002B60D0BB69042B05D0BB690C2B98
:100D780019D17B69022B16D17C4B1B6803F4806365
:100D8800002B05D07B68DB68002B01D101233FE2F3
:100D9800764B5B6823F0F8527B681B691B06734926
:100DA80013434B6040E07B68DB68002B23D06F4B1C
:100DB8001B686E4A43F48073136000F085FC386149
:100DC80008E000F081FC02463B69D31A022B01D9E6
:100DD80003231DE2654B1B6803F48063002BF0D0EE
:100DE800624B5B6823F0F8527B681B691B065F49FE
:100DF80013434B6018E05D4B1B685C4A23F4807317
:100E0800136000F061FC386108E000F05DFC024608
:100E18003B69D31A022B01D90323F9E1534B1B6811
:100E280003F48063002BF0D17B681B6803F0080390
:100E3800002B3CD07B685B69002B1CD04B4BD3F854
:100E480094304A4A43F00103C2F8943000F03CFC65
:100E5800386108E000F038FC02463B69D31A022BDF
:100E680001D90323D4E1414BD3F8943003F00203B2
:100E7800002BEFD01BE03D4BD3F894303B4A23F0D6
:100E88000103C2F8943000F01FFC386108E000F05C
:100E98001BFC02463B69D31A022B01D90323B7E195
:100EA800324BD3F8943003F00203002BEFD17B6868
:100EB8001B6803F00403002B00F0A6800023FB77D7
:100EC8002A4B9B6D03F08053002B0DD1274B9B6D54
:100ED800264A43F080539365244B9B6D03F080535F
:100EE800BB60BB680123FB77214B1B6803F480734D
:100EF800002B18D11E4B1B681D4A43F480731360E6
:100F080000F0E2FB386108E000F0DEFB02463B69D6
:100F1800D31A022B01D903237AE1154B1B6803F47A
:100F28008073002BF0D07B689B68012B08D10F4B96
:100F3800D3F890300D4A43F00103C2F8903029E00D
:100F48007B689B68052B15D1084BD3F89030074A6E
:100F580043F00403C2F89030044BD3F89030034AAE
:100F680043F00103C2F8903014E000BF00100240C3
:100F7800007000409C4BD3F890309B4A23F001034B
:100F8800C2F89030984BD3F89030974A23F0040376
:100F9800C2F890307B689B68002B16D000F094FB59
:100FA80038610AE000F090FB02463B69D31A41F22F
:100FB8008832934201D903232AE18B4BD3F890302E
:100FC80003F00203002BEDD015E000F07DFB386143
:100FD8000AE000F079FB02463B69D31A41F28832F5
:100FE800934201D9032313E17F4BD3F8903003F0E8
:100FF8000203002BEDD1FB7F012B05D17A4B9B6DB2
:10100800794A23F0805393657B689B6A002B00F034
:10101800FE807B689B6A022B40F0D080724BDB68B5
:101028007B617B6903F003027B68DB6A9A4230D1FB
:101038007B6903F070027B681B6B013B1B019A42C2
:1010480027D17B6903F4FE427B685B6B1B029A42E3
:101058001FD17B6903F400337A68926B072A14BFA7
:1010680001220022D2B2934213D17B6903F4C00259
:101078007B68DB6B5B08013B5B059A4209D17B69A6
:1010880003F0C0627B681B6C5B08013B5B069A42FD
:101098006ED0BB690C2B69D0534B1B6803F080637F
:1010A800002B05D1504B1B6803F08053002B01D057
:1010B8000123ADE04C4B1B684B4A23F0807313604F
:1010C80000F002FB386108E000F0FEFA02463B69D6
:1010D800D31A022B01D903239AE0434B1B6803F070
:1010E8000073002BF0D1404BDA68404B13407A680C
:1010F800D16A7A68126B013A120111437A68526B0D
:10110800120211437A68D26B5208013A5205114310
:101118007A68126C5208013A520611437A68926B47
:10112800120952040A4330491343CB602E4B1B6803
:101138002D4A43F0807313602B4BDB682A4A43F037
:101148008073D36000F0C0FA386108E000F0BCFAA0
:1011580002463B69D31A022B01D9032358E0224BDC
:101168001B6803F00073002BF0D050E001234FE020
:101178001D4B1B6803F00073002B48D11A4B1B68EA
:10118800194A43F080731360174BDB68164A43F023
:101198008073D36000F098FA386108E000F094FAA0
:1011A80002463B69D31A022B01D9032330E00E4BC8
:1011B8001B6803F00073002BF0D028E0BB690C2BF0
:1011C80023D0094B1B68084A23F08073136000F092
:1011D8007BFA38610CE000F077FA02463B69D31AD3
:1011E800022B05D9032313E0001002408C809DF9DF
:1011F800094B1B6803F00073002BECD1064BDA682F
:101208000549064B1340CB6001E0012300E00023B1
:1012180018462037BD4680BD00100240FCFFEEFE98
:1012280080B584B000AF786039607B68002B01D14D
:101238000123E7E0754B1B6803F007033A689A42FD
:1012480010D9724B1B6823F0070270493B6813439F
:101258000B606E4B1B6803F007033A689A4201D093
:101268000123CFE07B681B6803F00203002B10D03A
:101278007B689A68664B9B6803F0F0039A4208D92A
:10128800634B9B6823F0F0027B689B6860491343BB
:101298008B607B681B6803F00103002B4CD07B68D4
:1012A8005B68032B07D15A4B1B6803F00073002BB4
:1012B80021D10123A6E07B685B68022B07D1544B40
:1012C8001B6803F40033002B15D101239AE07B68D7
:1012D8005B68002B07D14E4B1B6803F00203002B01
:1012E80009D101238EE04A4B1B6803F48063002B6D
:1012F80001D1012386E0464B9B6823F003027B68FB
:101308005B68434913438B6000F0DEF9F8600AE03C
:1013180000F0DAF90246FB68D31A41F288329342A8
:1013280001D903236EE03A4B9B6803F00C027B68FB
:101338005B689B009A42EBD17B681B6803F0020351
:10134800002B10D07B689A68314B9B6803F0F00340
:101358009A4208D22E4B9B6823F0F0027B689B6868
:101368002B4913438B60294B1B6803F007033A682A
:101378009A4210D2254B1B6823F0070223493B6889
:1013880013430B60214B1B6803F007033A689A422A
:1013980001D0012336E07B681B6803F00403002BAF
:1013A80008D01B4B9B6823F4E0627B68DB68184914
:1013B80013438B607B681B6803F00803002B09D07C
:1013C800134B9B6823F460527B681B69DB00104950
:1013D80013438B6000F024F802460D4B9B681B09F1
:1013E80003F00F030B49CB5C03F01F0322FA03F34E
:1013F800094A1360094B1B68184600F015F90346A3
:10140800FB72FB7A18461037BD4680BD00200240AB
:1014180000100240F017000800000020040000201F
:1014280080B489B000AF0023FB610023BB613E4B51
:101438009B6803F00C033B613B4BDB6803F0030341
:10144800FB603B69002B05D03B690C2B21D1FB6865
:10145800012B1ED1344B1B6803F00803002B07D166
:10146800314BD3F894301B0A03F00F03FB6105E0FE
:101478002D4B1B681B0903F00F03FB612B4AFB690B
:1014880052F82330FB613B69002B0DD1FB69BB612E
:101498000AE03B69042B02D1254BBB6104E03B69A0
:1014A800082B01D1234BBB613B690C2B34D11E4B5C
:1014B800DB6803F00303BB60BB68022B03D0BB6887
:1014C800032B03D005E01A4B7B6105E0194B7B61C8
:1014D80002E0FB697B6100BF134BDB681B0903F06B
:1014E800070301337B60104BDB681B0A03F07F03A3
:1014F8007A6903FB02F27B68B2FBF3F37B610A4B68
:10150800DB685B0E03F0030301335B003B607A6921
:101518003B68B2FBF3F3BB61BB6918462437BD4691
:101528005DF8047B704700BF0010024000180008F7
:101538000024F40000127A0080B586B000AF78600D
:1015480000233B612A4B9B6D03F08053002B03D093
:10155800FFF726FA786114E0254B9B6D244A43F087
:1015680080539365224B9B6D03F08053FB60FB68AF
:10157800FFF716FA78611E4B9B6D1D4A23F08053C6
:1015880093657B69B3F5007F0BD17B68802B19D9F4
:101598007B68A02B02D902233B6113E001233B6146
:1015A80010E07B68802B02D903233B610AE07B684B
:1015B800802B02D102233B6104E07B68702B01D1B0
:1015C80001233B610B4B1B6823F0070209493B6968
:1015D80013430B60074B1B6803F007033A699A42F1
:1015E80001D0012300E0002318461837BD4680BD0E
:1015F800001002400020024080B582B000AF0023F6
:10160800FB710320FEF7D6FF0F2000F00DF803460C
:10161800002B02D00123FB7101E0FEF78FFEFB795E
:1016280018460837BD4680BD80B584B000AF7860E5
:101638000023FB73174B1B78002B23D0164B1A681B
:10164800144B1B7819464FF47A73B3FBF1F3B2FBD2
:10165800F3F31846FEF7D5FF0346002B0FD17B683E
:101668000F2B09D8002279684FF0FF30FEF7ADFF45
:101678000A4A7B68136007E00123FB7304E0012337
:10168800FB7301E00123FB73FB7B18461037BD4653
:1016980080BD00BF080000200000002004000020DA
:1016A80080B400AF064B1B781A46064B1B681344E0
:1016B800044A136000BFBD465DF8047B704700BF55
:1016C800080000202800002080B400AF034B1B68EE
:1016D8001846BD465DF8047B704700BF280000200F
:1016E80080B584B000AF7860FFF7EEFFB8607B6824
:1016F800FB60FB68B3F1FF3F05D00A4B1B781A4625
:10170800FB681344FB6000BFFFF7DEFF0246BB68BF
:10171800D31AFA689A42F7D800BF00BF1037BD46FF
:1017280080BD00BF0800002070B50D4D0D4C641B36
:10173800A4100026A64209D10B4D0C4C00F020F84D
:10174800641BA4100026A64205D170BD55F8043BC1
:1017580098470136EEE755F8043B98470136F2E71B
:10176800301800083018000830180008341800082D
:1017780002440346934200D1704703F8011BF9E77E
:10178800F8B500BFF8BC08BC9E467047F8B500BF66
:08179800F8BC08BC9E46704736
:1017A0000004004820000000000400484000000041
:1017B0000004004880000000000400480001000010
:1017C000000400480002000000040048000400007B
:1017D0000004004800080000000400480010000059
:1017E0000004004800200000000400480040000001
:1017F00000000000000000000102030406070809C1
:10180000A0860100400D0300801A060000350C0080
:1018100040420F0080841E0000093D0000127A0043
:101820000024F40000366E010048E801006CDC0280
:04183000AD010008FE
:04183400890100081E
:0C18380000093D0010000000010000004D
:0400000508000405E6
:00000001FF
